:020000040800F2
:10000000E822002001010008E7280008B3220008C8
:10001000E5280008FF020008532F00080000000038
:100020000000000000000000000000002F2C00086D
:10003000BD030008000000002D2C0008312C000832
:100040001B0100081B0100081B0100081B01000820
:100050001B0100081B0100081B0100081B01000810
:100060001B0100081B0100081B0100080103000818
:100070001B0100081B0100081B0100081B010008F0
:100080001B0100080D0300081B0100081B010008EC
:100090001B0100081B0100081B0100081B010008D0
:1000A0001B0100081B0100081B0100081B010008C0
:1000B0001B010008092D0008152D00081B01000870
:1000C0001B0100081B0100081B0100081B010008A0
:1000D0001B0100081B0100081B0100081B01000890
:1000E0001B0100081B0100081B010008DFF80CD0F1
:1000F00000F03AF800480047D1440008E822002008
:100100000648804706480047FEE7FEE7FEE7FEE7B1
:10011000FEE7FEE7FEE7FEE7FEE7FEE7C12C00088C
:10012000ED000008202A04DB203A21FA02F0002129
:10013000704721FA02F3D040C2F1200291400843F7
:1001400019467047D2B201E000F8012B491EFBD2DC
:1001500070470022F6E710B513460A4604461946D2
:10016000FFF7F0FF204610BD064C074D06E0E068A3
:1001700040F0010394E8070098471034AC42F6D3EE
:10018000FFF7B8FFB0DA0008D0DA000870B504460F
:1001900000688168C943C9071CD1816821F0010149
:1001A000816000F099FE05460FE000BF00F094FE6C
:1001B000401B022809D9A06A40F01000A062E06A42
:1001C00040F00100E062012070BD20688068C043FB
:1001D000C007EBD0002070BD10B50146406A826AAE
:1001E00012F0500F05D0006A026BBDE810400846BF
:1001F0001047816A41F40071816201688968C1F326
:10020000424107290CD1C16851B9816A21F480713A
:100210008162816AC90403D4816A41F0010181626B
:1002200000F0B2F910BD10B5406A816A41F040019A
:100230008162C16A41F00401C16200F0A7F910BDFA
:1002400010B5406A00F0A1F910BD0000F8B5002615
:100250000446009600688168C943C90728D08168B0
:1002600041F001018160134813490068B0FBF1F0CF
:1002700000E0401E00900028FBD100F02DFE054656
:1002800011E000BF00F028FE401B02280BD9A06A35
:1002900040F01000A062E06A40F00100E06284F8E3
:1002A00024600120F8BD20688068C043C007E9D100
:1002B0000020F8BDD000002040420F0010B50849D2
:1002C000084B00200A5C02F00F04120902EB8202C4
:1002D00004EB42021A54401CC0B20728F2D310BDEE
:1002E000480E0020300000200A21B0FBF1F201FB93
:1002F0001202B0FBF1F042EA0010C0B27047FEE714
:10030000014800F00BBB00005C1E0020014800F01B
:1003100005BB0000A01E002030B590F8405001241D
:10032000AC40C56B6C60046863604368102B036865
:1003300003D099600068C26030BD9A600068C160F7
:1003400030BD00002DE9F04307AC0A4494E8800377
:10035000D4B21A18D6B20346174D09E00A4605EB87
:10036000831C02E00CF80270521CA242FADB5B1CF8
:10037000B342F3DB02460BE00B4605EB821704E0C9
:1003800007EB030C5B1C8CF80084A342F8DB521CC7
:10039000B242F1DB0CE00A4605EB801305E000BF3A
:1003A00003EB020C521C8CF80098A242F8DB401CB4
:1003B000B042F0DBBDE8F083480200207047000047
:1003C000044B0022DA61044A136943F0010313610C
:1003D00001807047D800002000200240144800220D
:1003E000C168CB06134904D5CA6942F00202CA614A
:1003F0001022C3685B0705D5CB6943F00103CB61CD
:1004000042F00402C369DB0707D0CB6943F0040361
:10041000CB61C16921F00101C161A2F5807101398F
:1004200001D0C2607047C16921F00101C16170470C
:1004300000200240D800002070B5054600F04CFDB9
:100440000646114C09E0681C07D025B100F044FDB8
:10045000801BA84201D9032070BDE068C007F2D11B
:10046000E068800601D52020E060E068C00605D481
:10047000E069C00702D1E068400703D5FFF7AEFF8F
:10048000012070BD002070BD00200240F8B500249E
:10049000009490F824202546012A12D0012280F8E9
:1004A00024204A681F23072A0DD20668776B521E44
:1004B00002EB820293409F430B6893401F43776394
:1004C00019E00220F8BD06680D2A0AD2376BD21F48
:1004D00002EB820293409F430B6893401F433763B4
:1004E00009E0F76A0D3A02EB820293409F430B68E2
:1004F00093401F43F7620A68072306680A2A0AD353
:10050000F7680A3A02EB420293409F438B6893409C
:100510001F43F76008E0376902EB420293409F43B4
:100520008B6893401F4337610A68102A01D0112A53
:1005300020D1124B02689A4217D193681B0219D43A
:10054000936843F4000393600968102912D10C49A1
:100550000C4A0968B1FBF2F101EB8101490000E0AE
:10056000491E00910029FBD104E0816A41F020017D
:100570008162012480F824502046F8BD0024014007
:10058000D000002040420F007047704770470000C5
:100590002DE9F0414FF0000704003D467ED0A06AEF
:1005A000002628B9E66284F82460204600F07EF830
:1005B0002046FFF7EBFDA16AC90600D420B1A06A6E
:1005C00040F01000A06269E0A16A21F4885141F076
:1005D0000201A1626268E169E3680A4347EA4301F4
:1005E0000A43A1684FF48077B94209D0012907D0A6
:1005F0005FF00001D4F814C0BCF1010F02D00AE092
:100600003946F7E7F3B1A36A43F02003A362E36A34
:1006100043F00103E3622368D3F804C02CF4694C6F
:100620004CEA010CC3F804C021688B68DFF870C085
:1006300003EA0C0313438B60A168B9420BD0012974
:1006400009D00CE0DFF85CC0A3690CEB43330B432B
:1006500043F40061DFE7218A0D05A5F580152168C7
:10066000CB6A23F470032B43CB62216889680E4B5D
:100670001940914208D1E662A16A21F0020141F0DD
:100680000101A162BDE8F081A06A20F0020040F003
:100690001000A062E06A40F00100E0620120F1E792
:1006A000FDF7E1FF00E0FFFFFE0E1FFF30B505463E
:1006B0000068174985B0884228D11648816941F4FD
:1006C000007181618069694600F400700490012026
:1006D000009003200190104800F016FB104C0F48CA
:1006E0008021206000206060C4E90201490021618E
:1006F0008900C4E90510E061204600F0B9F918B19D
:10070000772108A002F026FC2C62656205B030BD9E
:10071000002401400010024000080140080002408F
:100720005C1E00202E2E2F5372632F73746D333294
:10073000663178785F68616C5F6D73702E6300005E
:100740002DE9F047894604463B4900683B4F0E1DA2
:100750009046884201D0B84207D1306810F4702F1B
:1007600003D001252846BDE8F08794F8240001282D
:100770000CD0012084F824002046FFF767FD050017
:100780004FF0000004D084F82400EBE70220EAE7F1
:10079000A16A40F60162914341F48071A16221682F
:1007A000B94218D1326812F4702F14D0A16A41F402
:1007B0008011A1623168490505D5A16A21F4005173
:1007C00041F48051A162A16AC9040AD5E16A21F00D
:1007D0000601E16206E0A26A22F48012A262496880
:1007E000E9E7E06284F82400216A15488862216AFA
:1007F0001448C862216A1448086321686FF0020037
:1008000008602068816841F48071816021684346F6
:100810004A464C31206A00F05DF920688168C1F3D6
:1008200042410729816803D041F48011816099E732
:1008300041F4A001FAE70000002401400028014033
:10084000D9010008410200082702000810B504463B
:1008500090F82400012807D0012084F824002046C5
:10086000FFF794FC10B10EE0022010BD20688168F3
:1008700021F480718160206A00F00EF8A16A30B125
:1008800041F04001A162002184F8241010BD21F440
:10089000885141F00101F5E701680A6822F00E0273
:1008A0000A6001680A6822F001020A6090F840209C
:1008B000C36B012101FA02F25A6080F82110002175
:1008C00080F820100846704710B508B301680A6820
:1008D00022F001020A600268002111600268516082
:1008E000026891600268D1600A4B026801241A44D0
:1008F0001423B2FBF3F29300074AC0E90F239C4094
:100900005460816380F8211080F82010002010BD11
:10091000012010BDF8FFFDBF000002402DE9F05F8F
:10092000C16B0C6801680B68D0F840C0042202FA61
:100930000CF2494DDFF824A1494E4A4FDFF828B1A7
:10094000DFF828E122422CD05A072AD50A689206FD
:1009500003D40A6822F004020A600168A94201D1A6
:10096000042219E0514501D1402215E0B14202D1E3
:100970004FF4806210E0B94202D14FF480420BE0A4
:10098000594502D14FF4802206E0714502D14FF45F
:10099000800201E04FF080622F4908394A60C16A45
:1009A0003BE04FF0020808FA0CF818EA040F4FF089
:1009B00000094FF0010235D05FEA837832D50B6829
:1009C0009B0605D40B6823F00A030B6080F82120F6
:1009D0000168A94201D1022219E0514501D120222A
:1009E00015E0B14202D14FF4007210E0B94202D1D9
:1009F0004FF400520BE0594502D14FF4003206E0AB
:100A0000714502D14FF4001201E04FF0007212491B
:100A100008394A6080F82090816A00291AD0BDE820
:100A2000F05F0847082505FA0CF5254212D01B0790
:100A300010D50B6823F00E030B6090F84010C36BC9
:100A400002FA01F15960826380F8212080F8209039
:100A5000016BE2E7BDE8F09F080002401C00024085
:100A60003000024044000240580002406C00024046
:100A700030B548B308C8154914221944B1FBF2F146
:100A80008900C16312498163022141771A6843F6E4
:100A9000F0718A43D0E900142143D0E902452C4388
:100AA000214304692143446921438469214311435B
:100AB0001960002141628162C162016341630122C8
:100AC00042770177084630BD012030BDF8FFFDBFF9
:100AD0000000024070B5044690F82000002501286F
:100AE0000CD0012084F8200094F821600020012E11
:100AF00006D084F820000225284670BD022070BD73
:100B0000022684F82160A0632068066826F00106AA
:100B100006602046FFF700FCE06A002820680168B4
:100B200002D041F00E0106E021F0040101602068CE
:100B3000016841F00A0101602068016841F001018B
:100B40000160D9E770B5044600F0C6F90546601C9F
:100B500002D004480078044400F0BEF9401BA042D3
:100B6000FAD370BD000000200348016941F0800104
:100B70000161002070470000002002402DE9F05F75
:100B800007461C4888460024017E15461E4601295A
:100B900009D00121814601764CF2503A5046FFF7C8
:100BA0004BFC18B122E00220BDE8F09F012F02D0DB
:100BB000022F00D00427D346DFF83CA022012846AC
:100BC0003146FFF7AFFA81B208EB4400FFF7F8FBBC
:100BD0005846FFF731FCDAF8102022F00102CAF87B
:100BE000102018B9641CE4B2BC42E7D3002289F893
:100BF0001820D9E7D8000020002002400649002034
:100C00000A69120607D5054A4A60054A4A60096919
:100C1000090600D5012070470020024023016745E6
:100C2000AB89EFCD2DE9F04300230F24DFF8C0C0DE
:100C300059E001229A400A4054D0FF2A01D80746C1
:100C400001E000F104074FEA830601D9A6F120066E
:100C5000D7F8008004FA06F54FF0040928EA0508E1
:100C600009FA06F948EA0908C7F80080C56825EAC4
:100C70000205C56023F003056544AF684FEA83763B
:100C80004FEA167604FA06F909EA0708194FB8423E
:100C900001D100270FE0184FB84201D101270AE027
:100CA000164FB84201D1022705E0154FB84201D1D5
:100CB000032700E00427B740474513D1AF6827EA70
:100CC0000907AF600F4D2E6896432E602D1D2E68CC
:100CD00096432E602D1D2E6896432E602D1D2E6886
:100CE00096432E605B1C31FA03F2A2D1BDE8F0837B
:100CF0000000014000080140000C014000100140CC
:100D000000140140000401402DE9F84FDFF890A1E4
:100D100000220AF1040B144601274FF00F090BF1D2
:100D2000040E00BF0B6807FA04F52B40AB4274D1E8
:100D3000DFF870C14E68A6EB0C0866452BD00DDCC1
:100D4000032E34D005DC36B3012E19D0022E2FD15C
:100D50001BE0112E16D0122E2AD119E0B8F5881FEB
:100D600019D006DCB8F5803F15D0B8F5801F1FD12B
:100D700011E0B8F5001F0ED0B8F5041F18D10AE035
:100D8000CA6815E0CA68121D12E0CA6808320FE08E
:100D9000CA680C320CE08A682AB1012A4FF00802B6
:100DA00003D0456104E0042202E0056100E0002276
:100DB000FF2B01D8064601E000F104064FEA840546
:100DC00001D9A5F12005D6F800C009FA05F82CEAEA
:100DD000080C02FA05F54CEA050CC6F800C04D688F
:100DE000ED0057D5304DAE6946F00106AE61AD69F4
:100DF00024F0030605F0010500952C4D06EB050CCB
:100E0000DCF80850A6074FEA167809FA08F6B54349
:100E1000274EB04202D1002610E03BE0254EB04202
:100E200001D101260AE0244EB04201D1022605E09C
:100E3000224EB04201D1032600E0042606FA08F64D
:100E40002E43CCF808604D68DAF80060ED03554693
:100E500001D51E4300E09E432E604D68DBF8006024
:100E6000AD035D4601D51E4300E09E432E604D68F4
:100E7000DEF80060ED02754601D51E4300E09E439A
:100E80002E604D68AD020E4D2E6801D51E4300E068
:100E90009E432E60641C102CFFF444AFBDE8F88F15
:100EA0000004014000001110001002400000014049
:100EB00000080140000C01400010014000140140F6
:100EC0000C0401408068084000D0012070470AB13E
:100ED000016170470904FBE7014880687047000022
:100EE0000000002010B5040013D0242084F83D0039
:100EF0002068016821F001010160204600F002FA3B
:100F00000020206484F83D0044F8300FA073207363
:100F100010BD012010BD704770B504001BD094F8BF
:100F20003D00002520B984F83C50204600F006FA28
:100F3000242084F83D002068016821F0010101604F
:100F400000F01EFC404A6168914201D83F4900E030
:100F50003F49884201D2012070BD3E492368B0FB61
:100F6000F1F159606368934206D94FF4967359437F
:100F70004FF47A73B1FBF3F12368491C196261687D
:100F8000914210D84900401EB0FBF1F2521CC2F34E
:100F90000B02042A01D2042022E0B0FBF1F0401C35
:100FA000C0F30B001CE0A368CBB301EBC10202EB62
:100FB0000116421EB2FBF6F2521C42F480421205A8
:100FC00036D06BB301EBC10202EB0111401EB0FB46
:100FD000F1F0401CC0F30B0040F4804040F40040AE
:100FE0002168C861D4E90701084321680860D4E991
:100FF0000310084321688860D4E90501084321688B
:10100000C8602068016841F001010160256420206A
:1010100084F83D00256384F83E50002070BD00E058
:1010200008E001EB4106421EB2FBF6F2521CC6E795
:101030000120D5E701EB4101401EB0FBF1F0401C5F
:10104000C0F30B00CAE70000A086010080841E00E8
:1010500000093D0040420F00704770472DE9FF4FE7
:1010600083B00025DDE910879A4693460446009533
:10107000FFF732FF064694F83D0020287BD14E480A
:1010800046F2A8114FF020090068B0FBF1F000EB28
:10109000C00101EB001000900098411E009108D2A1
:1010A00044F8305F84F80D902573032007B0BDE845
:1010B000F08F20688069C0438007EDD594F83C002C
:1010C000012876D0012084F83C0020680168C90717
:1010D00003D1016841F0010101602068016821F439
:1010E00000610160222084F83D00402084F83E0029
:1010F0002564C4F8248067853048E062608D2085CF
:101100000004000C4FF023083BD0A16B2C488862F0
:10111000A16B2C480863A06B45632168238D1031B7
:10112000626AA06BFFF7D6FCCDE9008653465A46AB
:101130002046049901F02AF930B1206C84F83C5023
:101140000428B2D10120B1E72068012F14D04168F2
:1011500041F480514160206841698169009184F8BF
:101160003C50416841F4807141602068416841F41D
:10117000006141601BE01CE0016821F480610160B6
:10118000E9E7CDE9008653465A462046049901F026
:10119000FDF80028D1D1206841698169009101687A
:1011A00041F40071016084F83D9084F83C500020C7
:1011B0007CE702207AE70000D00000200000FFFF5B
:1011C000DF220008B52200082DE9FF4F83B09A46C0
:1011D000DDE9118793460446DDF84090FFF77CFE79
:1011E000064694F83D0020287DD119230122434969
:1011F0002046009601F0B9F900287CD194F83C0013
:10120000012878D0012084F83C0020680168C907D3
:1012100003D1016841F0010101602068016821F4F7
:1012200000610160212084F83D00402084F83E00E8
:1012300000252564C4F82490A4F82A803048E06290
:10124000608D2085CDE9007653465A4620460499A4
:1012500001F014F980B3206C84F83C50042848D085
:1012600008E032463946204601F0F4F930B1206CEE
:10127000042839D0032007B0BDE8F08F606A411C14
:101280006162216800780861208D401E80B220854F
:10129000618D491E618521684A69D24352070BD48A
:1012A00068B1606A421C626200780861208D401E4D
:1012B0002085608D401E6085208D0028D1D132466A
:1012C0003946204601F02AF90028D0D154F83D0BC8
:1012D000016841F400710160202004F81E09E577DF
:1012E00065770020C7E706E02068016841F40071D7
:1012F00001600120BFE70220BDE7000002001000EE
:101300000000FFFF10B504460068094988420DD16E
:101310000848C16921F40011C161C0210648FFF7E6
:1013200081FCA06BBDE81040FFF7CEBA10BD0000F5
:101330000054004000100240000C014030B505464A
:101340000068184985B0884229D1C0200090122039
:1013500001900320039069461348FFF7D5FC13481A
:10136000C16941F40011C161C069124C00F4001060
:1013700004900F480021C4E900018020C4E9021054
:1013800020202161C4E905102046E161FFF770FBD0
:1013900018B1BE2108A001F0DDFDAC63656205B0A7
:1013A00030BD000000540040000C0140001002401D
:1013B00080000240A01E00202E2E2F5372632F7338
:1013C000746D3332663178785F68616C5F6D73700D
:1013D0002E630000024881680278114481607047E2
:1013E00000000020074810B5016841F010010160BD
:1013F000032000F08DF8002000F006F800F024F83B
:10140000002010BD0020024070B50D4D04464FF481
:101410007A712878B1FBF0F00A490968B1FBF0F065
:1014200000F083FB48B9102C07D200222146501E41
:1014300000F04EF800206C6070BD012070BD00000F
:1014400000000020D00000201A4808B5816941F052
:1014500001018161806900F001000090032000F02B
:1014600057F8002211466FF00B0000F031F800220F
:1014700011466FF00A0000F02BF8002211466FF0C1
:10148000090000F025F800221146501F00F020F856
:1014900000221146101F00F01BF800221146901E7A
:1014A00000F016F80022BDE808401146501E00F07A
:1014B0000FB800000010024000F01F02012191400F
:1014C0004009800000F1E020C0F8001170470000E2
:1014D000F0B40E4B1B680C46C3F30223C3F107059F
:1014E000042D00D90425191D072901D2002300E08D
:1014F000DB1E012606FA05F1491E214099409E4057
:10150000761E16403143F0BC01F0EEB90CED00E060
:10151000064900F0070208684FF6FF03184040EA4A
:101520000220034A10430860704700000CED00E001
:101530000000FA052DE9F84305460078354CC00750
:1015400054D0E0690026C00008D4E06940F0805023
:10155000E061E069012600F0805000902E480168AB
:10156000C90512D40168804641F480710160FFF71B
:10157000B3FC074605E000BFFFF7AEFCC01B6428C4
:1015800023D8D8F80000C005F6D5206A10F44070C2
:1015900021D0A98801F4407181421CD0206A1F49E2
:1015A000012220F440700A6000220A602062C00715
:1015B00011D0FFF791FC074641F2883808E000BFE0
:1015C000FFF78AFCC11B414502D90320BDE8F8831F
:1015D000206A8007F4D5206A696820F440700843C7
:1015E00020621EB1E06920F08050E0612878800719
:1015F00005D56068A96820F44040084360602878F9
:10160000C00605D56068E96820F480000843606082
:101610000020DBE70010024000700040400442421E
:101620002DE9F047DFF83C8105460E46D8F800006A
:1016300000F00700B0420CD2D8F8001021F00701EA
:101640003143C8F80010D8F8000000F00700B0429D
:1016500063D12878444C800705D56068A96820F0DC
:10166000F000084360602878C00745D0686801280A
:1016700016D02168022816D0890700294DDA616842
:1016800021F0030101436160FFF726FC696807460A
:1016900041F2883001290FD00229814619D027E074
:1016A00021688903E9E78901E7E700BFFFF714FC38
:1016B000C11B494501D918E081466068C0F381002B
:1016C0000128F3D118E000BFFFF706FCC11B494514
:1016D0000BD86068C0F381000228F5D10CE000BF90
:1016E000FFF7FAFBC11B494502D90320BDE8F0878B
:1016F000606810F00C0FF3D1D8F80010404601F0EC
:101700000701B1420BD9016821F0070131430160A3
:10171000006800F00700B04201D00120E6E7287819
:10172000400705D56068E96820F4E0600843606020
:101730002878000706D56068296920F4605040EADF
:10174000C100606000F02CF86168084AC1F3031121
:10175000515CC840064908600020FFF755FE002094
:10176000C4E70000002002400010024098DA0008A0
:10177000D00000200148006870470000D000002021
:101780000448054900684968044AC1F30221515CD4
:10179000C8407047D000002000100240A8DA0008BE
:1017A00012A185B00FC98DE80F0014A0144A00687B
:1017B00004905168134801F00C03042B10D0082B3F
:1017C0000ED1C1F38343C9031DF803000AD5516844
:1017D00004AAC1F34041515C0A4A5043B0FBF1F006
:1017E00005B0704708494843FAE7000002030405C2
:1017F000060708090A0B0C0D0E0F1010010200005D
:101800000010024000127A0000093D002DE9F84F57
:1018100004460078B94DC00748D06868C0F381001D
:10182000012807D06868C0F38100022809D16868E0
:10183000C00306D52868800338D5606800286FD0BB
:1018400034E06068B0F5803F0BD010B1B0F5A02F48
:1018500011D0286820F480302860286820F4802087
:1018600002E0286840F480302860606888B1FFF7A3
:1018700033FB064609E0286840F480202860F0E742
:10188000FFF72AFB801B642875D828688003F7D5EA
:101890000CE0FFF721FB064605E000BFFFF71CFB4D
:1018A000801B6428F0D828688003F7D42078944EF1
:1018B00080074FF001094FF000083BD5686810F031
:1018C0000C0F07D06868C0F38100022809D168684E
:1018D000C00306D42868800714D5206901281FD1C9
:1018E00010E02069B0B1C6F80090FFF7F5FA07469E
:1018F00005E000BFFFF7F0FAC01B0228C4D8286833
:101900008007F7D52868616920F0F80040EAC10037
:1019100028600FE0C6F80080FFF7DEFA074606E011
:10192000E9E000BFFFF7D8FAC01B022823D82868D7
:101930008007F7D4207800072CD57248A169D9B167
:10194000C0F80090FFF7C8FA074604E0FFF7C4FAB2
:10195000C01B02280FD8686A8007F7D56A484FF481
:10196000FA510068B0FBF1F0009000BF0098411EF2
:101970000091FAD20EE080E0C0F80080FFF7ACFAE8
:10198000074604E0FFF7A8FAC01B022875D8686A6A
:101990008007F7D42078400760D5E8690027C000A9
:1019A00008D4E86940F08050E861E869012700F058
:1019B0008050009055480168C90513D401688346DA
:1019C00041F480710160FFF787FA824606E000BFAC
:1019D000FFF782FAA0EB0A0064284ED8DBF800007B
:1019E000C005F5D5E06801280AD008B1052813D054
:1019F000286A20F001002862286A20F0040002E032
:101A0000286A40F001002862E06841F2883B98B102
:101A1000FFF762FA82460BE0286A40F00400286271
:101A2000EEE700BFFFF758FAA0EB0A0159455AD874
:101A3000286A8007F6D50CE0FFF74EFA824605E0EB
:101A4000FFF74AFAA0EB0A0159454CD8286A8007EB
:101A5000F6D41FB1E86920F08050E861E06988B3EE
:101A60006968C1F38101022945D00228C6F8608067
:101A700004D0FFF731FA044638E034E0FFF72CFADF
:101A8000074604E0FFF728FAC01B02282BD8286875
:101A90008001F7D4206AB0F5803F05D16868A1685D
:101AA00020F4003008436860D4E9080108436968FD
:101AB00021F4741108436860C6F86090FFF70CFACF
:101AC000044606E015E000BFFFF706FA001B0228F7
:101AD00009D828688001F7D50BE000BFFFF7FCF9B3
:101AE000001B022802D90320BDE8F88F2868800176
:101AF000F4D40020F8E70120F6E7000000100240CF
:101B00000000424280044242D000002000700040A9
:101B10004FF0E0210428086903D020F00400086198
:101B2000704740F00400FAE7704710B5401EB0F16E
:101B3000807F01D3012010BD4FF0E02460610F21B0
:101B4000601700F0D1FE0020A06107202061002076
:101B500010BD10B5FFF7E8FF10BD7047704730B5F6
:101B600090F83C20012A20D0012280F83C2002235A
:101B700080F83D3003685C6824F070045C600368A2
:101B80005C680D682C435C6003689C6824F08004EA
:101B90009C6003689C6849680C439C6080F83D2009
:101BA000002180F83C10084630BD022030BD10B541
:101BB000040003D094F83D0010B107E0012010BDEF
:101BC000002084F83C00204600F00CF8022084F845
:101BD0003D00211D206801F0A3F8012084F83D009C
:101BE000002010BD08B501681948B1F1804F11D02F
:101BF000184A914217D1C16941F00201C161C0691F
:101C0000002200F00200009011461D20FFF760FC4A
:101C10001D2019E0C16941F00101C161C06900F0F6
:101C20000100009008BD0C4A9142FBD1C16941F00E
:101C30000401C161C069002200F00400009001218C
:101C40001E20FFF745FC1E20BDE80840FFF734BC0E
:101C50000010024000040040000800400168CA680B
:101C600042F00102CA600068016841F001010160B0
:101C70000020704770B5044690F83C00012817D04A
:101C8000012584F83C50022084F83D0020688268D9
:101C900022F0770222F47F4282600868502837D011
:101CA0000DDC202859D005DC88B3102841D151E043
:101CB000022070BD302853D040283AD13FE0602840
:101CC0002ED070280BD0B0F5805F03D0B0F5005F48
:101CD0002FD110E02068816821F0070115E0CB6862
:101CE000D1E90121206801F05CF82168886840F0A2
:101CF000770088601DE0CB68D1E90121206801F000
:101D000050F82068816841F48041816011E01EE054
:101D1000CA684968206801F0F9F85021206806E097
:101D2000CA684968206801F002F96021206801F062
:101D300042F884F83D50002084F83C0070BDCA6829
:101D40004968206801F0E2F840212068EFE70021AF
:101D50002068ECE710212068E9E720212068E6E709
:101D600030212068E3E7704770B5044600680169D8
:101D70004FF00005C943890715D4C168C9438907D5
:101D800011D4E91E01610120207720688069800755
:101D9000204602D0FFF7E7FF04E000F0B7F8204646
:101DA00000F039F9257720680169C943490717D43C
:101DB000C168C943490713D46FF0040101610220CF
:101DC00020772068806910F4407F204602D0FFF71A
:101DD000CAFF04E000F09AF8204600F01CF92577CD
:101DE00020680169C943090716D4C168C9430907B6
:101DF00012D46FF008010161042020772068C069C7
:101E00008007204602D0FFF7AEFF04E000F07EF826
:101E1000204600F000F9257720680169C943C9060A
:101E200017D4C168C943C90613D46FF0100101610A
:101E3000082020772068C06910F4407F204602D037
:101E4000FFF791FF04E000F061F8204600F0E3F8AE
:101E5000257720680169C943C90708D1C168C9430A
:101E6000C90704D1891E0161204600F0EDF8206801
:101E70000169C943090609D4C168C943090605D4E3
:101E80006FF0800101612046FFF767FE206801695D
:101E9000C943490609D4C168C943490605D46FF04E
:101EA00040010161204600F003FA20680169C9433E
:101EB00089060BD4C168C943890607D46FF0200195
:101EC00001612046BDE87040FFF748BE70BD0000CC
:101ED0001FB50068B0F1804F13D14FF4006000903F
:101EE000022001900320039069460648FEF70CFF8C
:101EF0000548416821F4407141F0E06141F400710E
:101F000041601FBD000C014000000140704770B5EA
:101F1000044690F83C000D4601280DD0012684F8B7
:101F20003C60022084F83D0042B1042A18D0082AFF
:101F30002AD00C2A4DD139E0022070BD206800F073
:101F400043FF2068816941F008018161206881694F
:101F500021F004018161206881692A69114311E03F
:101F6000206800F059FF2068816941F400618161B7
:101F70002068816921F480618161206881692A6912
:101F800041EA0221816124E0206800F071FF2068AD
:101F9000C16941F00801C1612068C16921F00401F3
:101FA000C1612068C1692A69114311E0206800F00D
:101FB0008BFF2068C16941F40061C1612068C1697B
:101FC00021F48061C1612068C1692A6941EA022166
:101FD000C16184F83D60002084F83C0070BD10B5FC
:101FE000040003D094F83D0010B107E0012010BDBB
:101FF000002084F83C00204600F00CF8022084F811
:102000003D00211D206800F08BFE012084F83D007A
:10201000002010BD7047704710B5044600680122CB
:1020200000F0B4FE07492068884203D1416C41F4B6
:10203000004141642068016841F001010160002015
:1020400010BD0000002C01402DE9FE4F064600683F
:102050008F4900258F4C88423BD1217804F12C0018
:102060008D4F50F82100311D7860306800F058FE27
:102070003968A81E0861894F4FF000503860A17977
:10208000874B2278DFF81C8203EB4123002003EB0F
:1020900082124FF0020908F1040C135CC8F80030FA
:1020A000CCF80090401C4028F7DB084601F0A4FE65
:1020B0004FF4005038602078401CC0B220700828CF
:1020C00007D12570A079401CC0B2A071082800D1AA
:1020D000A5717549306888427ED1A0696D4E401C5B
:1020E000A061607BDFF8C481401CC1B2617360787D
:1020F000FF27143608F1050900285AD0012858D0C6
:10210000022869D1C80753D0009501950295B1788E
:10211000052301220220FEF715F90095019502958D
:10212000607805233044012241780220FEF70AF945
:10213000CDE9007502956078627C0123315C18F866
:1021400002001A460838C0B2FEF7FCF8CDE9007567
:1021500002956078627C0123315C19F802001A460E
:102160000838C0B2FEF7EEF8CDE900750295607848
:10217000627C30440123417818F802001A4608387E
:10218000C0B2FEF7DFF8CDE9007502956078627C99
:1021900030440123417819F802001A460838C0B2C9
:1021A000FEF7D0F8607C401CC0B26074052868D08F
:1021B00068E0C90769D0DFF8DCA000950AF1120ACF
:1021C000019502951AF800100B2304220320FEF754
:1021D000B9F80095019500E057E002956078052375
:1021E0000122315C0A20FEF7ADF830486178627C4C
:1021F0000A381AF80110805C00F086FB00F0ECFB56
:102200002A486178627C401F1AF80110805C00F057
:102210007BFB00F0E1FBA07802281ED0CDE9007521
:1022200002956078627C0123315C18F802001A463E
:10223000FEF788F8CDE9007502956078627C01238D
:10224000315C19F802001A46FEF77CF8607C401CED
:10225000C0B2607405280FD00FE0CDE90057029599
:102260006078627C0123315C18F802001A46FEF7A0
:1022700069F8CDE90057DFE76574BDE8FE4F00F06F
:1022800049BB657401F08EF8F7E7BDE8FE8F0000EA
:10229000000400400C000020C8010020100C014088
:1022A0005A0E00200C080140000800400E470008AC
:1022B0007047FEE710B5406A01680A6822F4806240
:1022C0000A6000214185202280F83D2080F83E10E0
:1022D000016C41F010010164FEF71DFE10BD10B548
:1022E0000146406A90F83D3090F83E40496A00222D
:1022F000212B09681CD0222B01D1202C18D00B686F
:1023000023F480630B6001680B6843F400730B6077
:1023100001684B6823F480534B6001684B6823F4D9
:1023200000634B604285016C69B1FEF7F4FD10BD9E
:102330004B6823F400634B6042850068416841F4B8
:102340004071416010BD202180F83D1090F83E1092
:1023500080F83E20402902D0FEF77EFE10BDFEF739
:102360007CFE10BD01684A69D24352050CD46FF45B
:1023700080624A6104210164002140F8301F20225C
:102380004273017301207047002070472DE9F84F18
:102390000446006889460B9D01689846174641F43B
:1023A000806101602068016841F4807101600095DE
:1023B0004FF0011A0022514620460A9B00F0D5F842
:1023C000F0BB216809F0FE0008610AF1010B2B4601
:1023D000594620460A9A00F0F9F818B1206C0428F2
:1023E00012D03AE020684169806900902A46204670
:1023F0000A9900F02FF950B1206C04282DD12068E3
:10240000016841F4007101600120BDE8F88FFEB25F
:10241000B8F1010F09D02168380A08612A46204620
:102420000A9900F017F90028E6D1206806612A46CB
:1024300020460A9900F00EF90028DDD1206800E05E
:102440000BE0016841F48071016000950022514663
:1024500020460A9B00F089F808B10320D5E72168DF
:1024600009F0FF0040F0010008612B465946204664
:102470000A9A00F0ABF80028B0D1C6E72DE9F8437E
:10248000044600680D46DDE908970168984616463F
:1024900041F4807101604B4600224FF0011120464B
:1024A000009700F062F8E8B9216805F0FE000861C5
:1024B0003B464A461849204600F088F828B1206C6F
:1024C00004280FD10120BDE8F883206841698069A4
:1024D00000903A464946204600F0BCF820B1206CF6
:1024E000042813D00320EEE7F5B2B8F1010F09D0AC
:1024F0002168300A08613A464946204600F0AAF8A9
:102500000028ECD1206805610020DCE72068016824
:1025100041F400710160D5E70200010070B5164674
:102520000D4604461AE02046FFF71CFF08B10120C3
:1025300070BD681C12D025B1FEF7CEFC801BA842EE
:102540000CD954F8400F40F0200044F81009002046
:102550002060202161732073032070BD20684069D2
:10256000C0434007DFD4002070BD2DE9F0471E4670
:1025700090460D460446C1F30747DDF8209012E06F
:10258000701C10D02EB1FEF7A7FCA0EB0900B042E2
:1025900009D9002044F8300F20216173A073207303
:1025A0000320BDE8F0872068012F0AD0806925EA62
:1025B00000000004000C06D000214145E0D00020BE
:1025C000EFE74069F3E70121F7E700002DE9F04765
:1025D0009A4691460D46044600264FF02008C1F366
:1025E00007472AE020684069C043400512D42068AC
:1025F000016841F40071016021686FF480604861F6
:1026000004202064266384F83D8084F83C60012027
:10261000BDE8F087B9F1FF3F0FD0B9F1000F05D049
:10262000FEF75AFCA0EB0A01494506D944F8306F81
:1026300084F80D8026730320EAE72068012F07D075
:10264000D0F8180025EA00000004000CE0D0C9E72B
:102650004069F7E770B516460D4604461AE0204675
:10266000FFF780FE08B1012070BD681C12D025B1B3
:10267000FEF732FC801BA8420CD954F8400F40F002
:10268000200044F81009002020602021617320738D
:10269000032070BD20684069C0430006DFD40020DD
:1026A00070BD00003EB50F4800240D498460C46031
:1026B00044610160012505614FF460214460C161FE
:1026C000FDF766FF00B1FEE7CDE900456946054824
:1026D0000294FDF7DBFE002800D0FEE73EBD0000BF
:1026E00000240140040100202DE9F041224886B079
:1026F000816941F020018161816901F0200104912B
:10270000816941F004018161816901F00401049152
:10271000816941F0080181618069184F00F008006B
:1027200004900022FE213846FEF7D1FBDFF85080EE
:1027300046F20746002231464046FEF7C8FBFE201F
:102740000124CDE900040225694603953846FEF7C9
:10275000DBFACDE90064694640460395FEF7D4FAFA
:10276000302000900020CDE9010469464046FEF784
:10277000CBFA06B0BDE8F08100100240000801402D
:10278000000C01400B4810B5094901600A4941603D
:1027900000214FF480428160C0E9031241618161F0
:1027A000C1610162FEF7B8FB002800D0FEE710BD52
:1027B0000054004034010020A086010010B51D48DF
:1027C0008EB04FF08041016001210024C0E9011466
:1027D0004FF4C871C0E903148461FFF7E8F900B150
:1027E000FEE74FF48050079007A91248FFF742FA1E
:1027F00000B1FEE70F48FFF7F2FB00B1FEE70B94D4
:102800000BA90C480C94FFF7AAF900B1FEE7602071
:10281000CDE90004022002900C2269460494054888
:10282000FFF775FB00B1FEE70248FFF751FB0EB062
:1028300010BD00008801002010B5134886B0114972
:1028400001604FF6FF710024C0E901142621C0E9A0
:1028500003148461FFF7ABF900B1FEE74FF4805039
:10286000009069460848FFF705FA00B1FEE70494B6
:1028700004A905480594FFF772F9002800D0FEE787
:1028800006B010BD00040040C801002010B5144877
:1028900086B01249016048F6A0410024C0E9011445
:1028A00040F28F11C0E903148461FFF780F900B191
:1028B000FEE74FF48050009069460948FFF7DAF9C7
:1028C00000B1FEE7049404A905480594FFF747F911
:1028D000002800D0FEE706B010BD00000008004050
:1028E00008020020FEE770470907090E002806DAF3
:1028F00000F00F0000F1E02080F8141D704700F197
:10290000E02080F800147047014AD17110727047BE
:102910000C0000202DE9F04FDFF8B8A00024A046FD
:102920004FF001090AF6124B00230AEB84160BEB59
:102930004427002009FA03F207EB8311351801F848
:10294000008095F800C61CEA020F03D04FF0040C7B
:1029500001F800C095F800C41CEA020F05D011F878
:1029600000C04CF0080C01F800C016F800C01CEACA
:10297000020F05D011F800C04CF0100C01F800C097
:1029800095F800C81CEA020F05D011F800C04CF001
:10299000200C01F800C095F800C21CEA020F05D017
:1029A00011F800C04CF0400C01F800C095F8005A36
:1029B000154203D00D5C45F080050D54401C4028A5
:1029C000BCDB5B1C082BB4DB641C082CACDBBDE857
:1029D000F08F0000480200202DE9F04F1548DFF885
:1029E0005CB00022817890F80890C57901EB410035
:1029F000114901EB001A00210AEB02140BEB8227AC
:102A000001EB0903002004EB810607EB831300BFF1
:102A100016F800C000EB0508401C03F808C00428A5
:102A2000F6DB491C0429EBDB521C032AE3DBBDE87F
:102A3000F08F00000C000020D0A000084802002009
:102A40002DE9F047DFF87C908246002299F8028059
:102A500099F8085099F8073000214C190F2C29DCFF
:102A600040F2654708FB07F6174FCAEB4A1C07EB15
:102A70008606CCEB0A2706EB4707C2EB021606EBED
:102A8000860607EB460701EB810607EB46060F4F6C
:102A9000002007EB822707EB8417C4183F2C06DCC5
:102AA00016F800C0401C07F804C00A28F5DB491CD2
:102AB0000F29D2DB521C032ACEDB0B3389F80730F7
:102AC000BDE8F0870C0000201847000848020020ED
:102AD0002DE9F04FDFF870E0C0EB001000219EF808
:102AE00002409EF80730C4EB0412184C02EB82023D
:102AF0009EF8089004EB02129B4602EBC00A01EB21
:102B000081000AEBC0081248002200EB812502EB8D
:102B1000820402EB09060020444405EB8616275C7C
:102B200000EB030C401C06F80C700528F7DB521C68
:102B3000082AECDB491C0329E1DB0BF106018EF8C6
:102B40000710BDE8F08F00000C000020688D000821
:102B5000480200202DE9F84F8A4630490022C0EB98
:102B6000C0000C7ACB792E49DFF8B8B000EB010930
:102B70008025964600930021002019F8016000BFCF
:102B800025FA00F73E4230D0BAF1010F06D0BAF173
:102B9000000F0FD0BAF1020F1BD00DE062B901EBAC
:102BA00004080BEB881700EB03084FF0FF0C07F845
:102BB00008C024E0022A06D00BEB822C0CEB811C0F
:102BC0000CF800E01BE0FF27DFF85CC001EB040815
:102BD00004E07F270BEB822C01EB04080CEB881C34
:102BE00000EB03080CF8087009E00BEB822C01EBFA
:102BF00004080CEB881C00EB03080CF808E0401CF0
:102C00000628BDDB491C0729B6DB521C032AB2DBB0
:102C100002480099891DC171BDE8F88F0C000020A1
:102C200028A0000848020020480A0020704770478A
:102C300010B5FEF7CFFBBDE81040FEF78ABF30B5F8
:102C400093B00920012100904FF4803000250491B9
:102C50000691CDE901050224CDE907404FF4E010CB
:102C600009906846FEF7D2FD00B1FEE70AA90F20E1
:102C700081E831004FF48060CDE90D0502210AA8FA
:102C8000FEF7CEFC00B1FEE74FF4004011900F9428
:102C90000FA8FEF74FFC00B1FEE7FEF76BFD4FF407
:102CA0007A71B0FBF1F0FEF740FF0420FEF730FF31
:102CB00000221146501EFEF70BFC13B030BD000081
:102CC0000D48016841F00101016041680B4A114063
:102CD000416001680A4A11400160016821F48021C5
:102CE0000160416821F4FE0141604FF41F018160E1
:102CF0000449C00308607047001002400000FFF85C
:102D0000FFFFF6FE08ED00E00148FFF72DB80000D8
:102D1000C80100200148FFF727B800000802002082
:102D2000F0B50268164B174C174D4FF0804798428C
:102D300005D0B84203D0A04201D0A84203D122F06E
:102D400070064A683243984205D0B84203D0A04288
:102D500001D0A84203D122F44074CA68224322F071
:102D600080044A69224302608A68C2620A688262F9
:102D7000984201D10969016301214161F0BD000060
:102D8000002C0140000400400008004010B5012361
:102D9000046A8B409C430462036A8A4013430362C3
:102DA00010BD10B5846842EA032224F47F440A432C
:102DB0002243826010BD826822F070020A4342F012
:102DC000070181607047000030B5026A22F00102FD
:102DD0000262026A4368846924F073050C682C431C
:102DE00022F002058A682A430A4DA8420BD122F03C
:102DF0000805CA6823F440732A434D6922F004028F
:102E00001D438B692B4343608461496841630262BF
:102E100030BD0000002C014030B5026A22F01002E3
:102E20000262026A436884690D6824F4E64444EA55
:102E300005248D6822F0200242EA05120B4DA842BB
:102E40000ED1CD6822F0800242EA05124D6923F4CA
:102E5000406343EA85038D6922F0400243EA85031B
:102E60004360846149688163026230BD002C014087
:102E700030B5026A22F480720262036A4268C46951
:102E800023F4007324F073050C682C438D6843EA27
:102E900005230C4DA8420ED1CD6823F4006343EA0C
:102EA00005234D6922F4405242EA05128D6923F44C
:102EB000806342EA05124260C4614968C1630362EB
:102EC00030BD0000002C014030B5026A22F480526F
:102ED0000262046A4268C3690D6823F4E64343EA68
:102EE00005238D6824F4005444EA0534064DA842B5
:102EF00004D14D6922F4804242EA85124260C361E6
:102F000049680164046230BD002C014010B5036AB9
:102F1000046A24F001040462846924F0F00444EAA1
:102F2000021423F00A020A438461026210BD10B544
:102F3000036A23F0100303628369046A23F4704375
:102F400043EA023224F0A00343EA011182610162E4
:102F500010BDFEE7FEE702E008C8121F08C1002A04
:102F6000FAD170477047002001E001C1121F002A0A
:102F7000FBD17047F0B5A2F1110303EB430301EB62
:102F80008303224F113A07EB830302EB420233F82B
:102F9000046C01EB8201C6F3402437F8211006F0DF
:102FA0001F0501F01F02C1F3431CC6F343130127A1
:102FB00017491D34C6F38026A54201D1022A06D046
:102FC0002844401EC0B2C872A04211D914E00128A2
:102FD00005D01F2805D0401EC8724EB905E0CD723D
:102FE00006E0CF7281F80CC0F0BD0C2B02D05B1C48
:102FF0000B73F0BD0123FBE7001BC872981B401C3C
:10300000C0B208730D28F4D10F73F0BD08A20008F8
:103010000C0000202DE9FC5F9B46DDE90F76CDE931
:1030200000760CAD9246894695E80E000446584657
:1030300000F062FCDFF86080184D20212846FDF783
:1030400041FFA8B9C820FDF77DFD18F80410491C00
:10305000C9B208F80410494501D908F804A0CDE91F
:1030600000760DF1300C58469CE80E0000F044FC50
:1030700010212846FDF726FF0028DED11420FDF799
:1030800061FD10212846FDF71DFF0028F9D018F832
:103090000400BDE8FC9F000030000020000C01404F
:1030A0002DE9F04FBC4F85B010213846FDF70AFFDF
:1030B0000025BA4C4FF0FF0800287CD11420FDF702
:1030C00041FD10213846FDF7FDFE0028F9D084F8B7
:1030D0000180019502950395049501230022172193
:1030E00002200095FFF796FFFDF7FEF8014602204B
:1030F00000F06EFE012600230195029503951A4605
:103100003B21304600960495FFF784FFFDF7ECF86D
:103110000146012000F05CFECDE901650023039526
:1031200004951A463B2118460095FFF773FFFDF7FB
:10313000DBF80146002000F04BFECDE90156039577
:103140000495002301221F2104200095FFF762FF50
:10315000FDF7CAF80146042000F03AFECDE9025618
:1031600001950495002301220C2105200095FFF70D
:1031700051FFFDF7B9F80146052000F029FE019541
:103180000295CDE903560023122263210620009503
:10319000FFF740FFFDF7A8F80146062000F018FEF3
:1031A0007E480523243007224179032913D34E1C7E
:1031B00006EB460600E03BE0B6FBF3F303EB41030E
:1031C000067981790E44334401F5FA6103EB9101EC
:1031D00001F5FA6111E001F10D0606EB4606B6FBBA
:1031E000F3F303EB4103067981790E44334401F292
:1031F000CF7103EB910101F2E771B1FBF2F302FB36
:103200001311C9B2491CC9B2C1700846FDF76CF868
:103210000146032000F0DCFD5FF0000601F042F9FA
:103220000120FDF78FFC761C322EF7DB00F026FD27
:1032300020213846FDF746FE00287DD11420FDF7F9
:1032400081FC3E4620213046FDF73CFE0028F9D0A7
:1032500084F801800021AB4600950195102340229F
:1032600008460295FDF76EF84FF47A794FF0640A3C
:103270000A27B04600210920FFF746FBE0694D46CA
:1032800090FBF5F0C0B20121FFF764FCE0695646FF
:1032900090FBF5F105FB110090FBF6F0C0B20121A7
:1032A000FFF758FCE06990FBF6F106FB110090FB7C
:1032B000F7F0C0B20121FFF74DFCE06990FBF7F198
:1032C00007FB1100C0B20121FFF744FC01F09AF89E
:1032D00000210846FFF718FB206A0221B0FBF5F039
:1032E000C0B2FFF737FC206AB0FBF5F105FB110017
:1032F000B0FBF6F0C0B20221FFF72CFC206AB0FB55
:10330000F6F106FB1100B0FBF7F00221FFF722FCFB
:10331000216AB1FBF7F007FB10100221FFF71AFC3E
:10332000202145464046FDF7CDFD60B96420FDF7FC
:1033300009FCE069323000E02BE0E061B0F5C87FC5
:1033400001DDC4F81CB010212846FDF7BBFD28B1F3
:10335000FFF7E0FA6420FDF7F5FB8BE71420FDF79B
:10336000F1FB10212846FDF7ADFD0028F9D00C48EF
:10337000E16900F01DFD002401F094F80120FDF743
:10338000E1FB641C322CF7DB05B0BDE8F04F00F028
:1033900075BC05B0BDE8F08F000C01400C000020AA
:1033A00000FF01082DE9F04F3F4C0023092104EBF9
:1033B0008325002005EB8112161876781654401CE0
:1033C000C0B23F28F8D3491CC9B21029F1D35B1C05
:1033D000DBB2032BEAD3DFF8D4B0354D0BF14C0E42
:1033E0009BF80F309BF80EA080221EF803000021EE
:1033F00022FA0AF2C0EBC000461999460D462A4C43
:10340000DFF8B0C001EB8107092004EB81240CEB4D
:10341000C70700BF06EB000CACF5805C9CF8A7CE9C
:103420001CEA020F04D104EB801C8CF83F5005E02D
:1034300004EB801817F803C088F83FC0401CC0B2E6
:103440001028E7D3491CC9B20329D8D30AF10101D6
:10345000C9B28BF80E109BF803205846914219D13F
:103460000621C17009F101018573C9B2C1731EF84B
:10347000011003223E2903D03A2901D0442900D16A
:10348000C270452908D0402909D0002902D1FF2166
:103490008BF80110BDE8F08F8BF80320FAE70421C8
:1034A0008BF80310F6E70000480200200C00002013
:1034B00028A0000890A100082DE9F0474749002303
:1034C000002201EB8325002005EB82142618767874
:1034D0002654401CC0B23F28F8D3521CD2B2102A46
:1034E000F1D35B1CDBB2032BEAD3DFF8F4903D4849
:1034F00009F1750A99F80F80002299F80E701AF8F0
:10350000083099F80440802500EB4316FD40104632
:1035100001EB821383F83F0083F83F0483F83F08F0
:1035200016F804C01CEA050F02D183F83F0003E03F
:103530004FF0FF0C83F83FC0A41C521CD2B2E4B27F
:10354000102AE5D30023002201EB8314A55C35B9D2
:10355000A51895F8006416B995F800687EB1224D5B
:1035600005EB8315AE5CA654AE18A51896F800C4FA
:1035700085F800C496F8006885F8006804E0A05457
:1035800085F8000485F80008521CD2B2402ADDD329
:103590005B1CDBB2102BD6D37F1CF9B24C4689F8EA
:1035A0000E10082902D1A07301212171217C491C30
:1035B000C9B22174E27891420DD120742071A073B8
:1035C00008F1010884F80F8000F050FCE17B1AF844
:1035D0000100002800D00120BDE8F087480200204B
:1035E0000C00002098BD000898B100080B48017934
:1035F000012902D1407901280CD008482438C17A29
:10360000007B142901D90C2805D00A2901D20128F0
:1036100000D00020704701207047000030000020DB
:103620002DE9F041FF20B2490026B24C48703546E2
:103630000022002104EB8227002007EB811300BF4A
:1036400003EB000C9CF840C003F800C0401CC0B263
:103650000A28F5D3491CC9B20F29EDD3521CD2B2A6
:10366000032AE6D30021002004EB81221318401C1A
:10367000C0B283F8C0530A28F8D3491CC9B2032941
:10368000F1D3FFF747F90F20FDF75CFA761CF6B28D
:10369000042ECDD300260022002104EB8227002037
:1036A00007EB811303EB000C9CF840C003F800C04B
:1036B000401CC0B21528F5D3491CC9B20F29EED35E
:1036C000521CD2B2032AE7D30020002104EB80224F
:1036D0005318491CC9B283F8C0531529F8D3401CAC
:1036E000C0B20328F1D3FFF715F90F20FDF72AFA2E
:1036F000761CF6B2042ECED300260022002104EB65
:103700008227002007EB811303EB000C9CF840C0DC
:1037100003F800C0401CC0B21A28F5D3491CC9B236
:103720000F29EED3521CD2B2032AE7D30020002186
:1037300004EB80225318491CC9B283F8C0531A29DC
:10374000F8D3401CC0B20328F1D3FFF7E3F80F20F1
:10375000FDF7F8F9761CF6B2042ECED3002600222F
:10376000002104EB8227002007EB811303EB000C00
:103770009CF840C003F800C0401CC0B22528F5D317
:10378000491CC9B20F29EED3521CD2B2032AE7D387
:103790000020002104EB80225318491CC9B283F891
:1037A000C0532529F8D3401CC0B20328F1D3FFF73A
:1037B000B1F80F20FDF7C6F9761CF6B2042ECED371
:1037C00000260022002104EB8227002007EB811352
:1037D00003EB000C9CF840C003F800C0401CC0B2D2
:1037E0003028F5D3491CC9B20F29EED3521CD2B2EE
:1037F000032AE7D30020002104EB80225318491C40
:10380000C9B283F8C0533029F8D3401CC0B2032892
:10381000F1D3FFF77FF80F20FDF794F9761CF6B28D
:10382000042ECED300260022002104EB82270020A4
:1038300007EB811303EB000C9CF840C003F800C0B9
:10384000401CC0B23828F5D3491CC9B20F29EED3A9
:10385000521CD2B2032AE7D30020002104EB8022BD
:103860005318491CC9B283F8C0533829F8D3401CF7
:10387000C0B20328F1D3FFF74DF80F20FDF762F92E
:10388000761CF6B2042ECED300260022002104EBD3
:103890008227002007EB811303EB000C9CF840C04B
:1038A00003F800C0401CC0B24028F5D3491CC9B27F
:1038B0000F29EED3521CD2B2032AE7D300200021F5
:1038C00004EB80225318491CC9B283F8C053402925
:1038D000F8D3401CC0B20328F1D3FFF71BF80F2028
:1038E000FDF730F9761CF6B2102ECED3BDE8F0818C
:1038F0000C000020480200202DE9FF4F83B0002675
:10390000DDE9108993468A46074600960196102302
:103910004022314630460296FCF714FD0B21002070
:10392000FEF7F2FF4D4C0A253946A078B0FBF5F0C2
:10393000FFF710F9A078B0FBF5F105FB110039464F
:10394000FFF708F90123FF2700961A4618211846A9
:10395000CDE90167FCF7F6FC012300961A46182111
:103960000520CDE90167FCF7EDFC19210020FEF7E9
:10397000CBFF60785146B0FBF5F0FFF7EBF86078CD
:10398000B0FBF5F105FB11005146FFF7E3F8012309
:1039900000961A4626211846CDE90167FCF7D2FCAD
:1039A000012300961A4626210520CDE90167FCF780
:1039B000C9FC27210020FEF7A7FF20785946B0FB5D
:1039C000F5F0FFF7C7F82078B0FBF5F105FB110023
:1039D0005946FFF7BFF800210920FEF795FF20792F
:1039E0000699B0FBF5F0FFF7B5F82079B0FBF5F1DB
:1039F00005FB11000699FFF7ADF800210F20FFF736
:103A0000A9F860794146B0FBF5F0FFF7A3F86079BB
:103A1000B0FBF5F105FB11004146FFF79BF80021D3
:103A20000F20FFF797F849460220FFF793F8494621
:103A30000020FFF78FF8A0794946B0FBF5F0FFF7BB
:103A400089F8A079B0FBF5F105FB11004946FFF7B5
:103A500081F807B0BDE8F04FFEF75CBF30000020F2
:103A60002DE9FE4F0B25DFF80CA2DFF80C924FF08A
:103A70000A084FF0FF0B0024009401940823292228
:103A80000B2100200294FCF75DFC0B210020FEF7C7
:103A90003BFF99F80200B0FBF8F0FFF719F899F82E
:103AA0000200B0FBF8F108FB1100FFF711F8CDE9B7
:103AB00000B401235E461A46172102200294FCF747
:103AC00041FCCDE9006401231A4617210620029427
:103AD000FCF738FC19210020FEF716FF99F80100C9
:103AE000B0FBF8F0FEF7F4FF99F80100B0FBF8F135
:103AF00008FB1100FEF7ECFFCDE9006401231A4634
:103B0000252102200294FCF71DFCCDE9006401236D
:103B10001A46252106200294FCF714FC27210020D8
:103B2000FEF7F2FE99F80000B0FBF8F0FEF7D0FFC8
:103B300099F80000B0FBF8F108FB1100FEF7C8FF90
:103B400000217F235246002002EB812606EB8017DE
:103B5000401CC0B27B550828F8D3491CC9B20329C0
:103B6000F1D300206D1C002302EB8026E9B206EBA6
:103B7000831702E07C54491CC9B23329FAD35B1C79
:103B8000DBB2082BF2D3401CC0B20328EBD3FEF704
:103B9000C1FE1420FCF7D6FFEDB2332DFFF46CAF5D
:103BA0000094019408230122322100200294FCF7A2
:103BB000C9FBFEF7AFFE304D99F803002835012808
:103BC00003D03D212970303002E046202870472084
:103BD000A87099F80400B0FBF8F130312971B0FBFE
:103BE000F8F108FB11013031697199F80510B1FB4A
:103BF000F8F23032EA71B1FBF8F208FB12123032FF
:103C00002A7299F80620B2FBF8F330332B73B2FB1B
:103C1000F8F308FB132330336B73FFF7ABF9164847
:103C20002438C17AB1FBF8F23032AA74B1FBF8F251
:103C300008FB12113031E974017BB1FBF8F230322C
:103C40006A75B1FBF8F208FB12113031A975417A9F
:103C5000B1FBF8F230322A76B1FBF8F208FB121110
:103C600030316976022141708473C4730621C170BA
:103C7000BDE8FE8F48020020300000202DE9FE4FF5
:103C800000F010FCFF20DFF820A10F2481468AF805
:103C900001000AF1240B4FF0000800214546CDF841
:103CA0000080CDF80480102340220846CDF808801B
:103CB000FCF748FB5E469BF802200021012000F043
:103CC000C3F816210320FEF71FFEFEF785FE16211E
:103CD0000A20FEF719FEFEF77FFE72781B210120F5
:103CE00000F0B2F8CDE9009501234F461A46312184
:103CF0000A200295FCF726FBCDE9007501231A4640
:103D000031210E200295FCF71DFB33210820FEF720
:103D1000FBFD30780A25B0FBF5F0FEF7D9FE3078D0
:103D2000B0FBF5F105FB1100FEF7D2FE00252BE0FC
:103D30001E490023002201EB8327002007EB821697
:103D400006EB000C9CF840C006F800C0401CC0B256
:103D50004028F5D3521CD2B20F2AEED35B1CDBB243
:103D6000032BE7D300204646002201EB80239F1857
:103D7000521CD2B287F8C063402AF8D3401CC0B2AC
:103D80000328F1D36D1CEDB2A542D1DBFEF7C2FDD5
:103D90000F20FCF7D7FE641E64B2002CBFF67DAF87
:103DA0008AF80180BDE8FE8F0C0000204802002048
:103DB00070B50C460546FCF721FF22460023294634
:103DC0004FF00040FCF7DAFEBDE87040FCF7CCBED7
:103DD0000EB5074A0123117000924FF47A71CDE9B4
:103DE00001310246D0210348FDF7EEF90EBD000077
:103DF0001100002034010020F0B5022211490125F4
:103E000053061404D6030F15082816D2DFE800F075
:103E10000406080A0C0F12160B6006E00B6007E0A0
:103E20000B6008E00B600AE00F600C6004E00F60BC
:103E30000C6005E00F600A600E60F0BD0F600A6064
:103E40000D60F0BD100C014030B51446FEF75CFD6E
:103E50000A25B4FBF5F0FEF7F3FDB4FBF5F005FB26
:103E60001040BDE83040FEF7EBBD000030B56549BD
:103E7000082301F17500CB70CA7B805C032269289E
:103E80000BD02B2809D0202807D0A0F1B704042C90
:103E900003D919340D22042C01D8CA7030BD052471
:103EA0006A281FD066281FD073281DD0A0F1C00536
:103EB000042D17D90724652814D0632812D06C2844
:103EC00010D07A280ED049280CD031280AD0722878
:103ED00008D0742806D0612802D02635102D05D8C8
:103EE000CB7030BDCC7030BD062089E0A0F17B05E1
:103EF000022DF7D91E28F5D01F28F3D07028EFD057
:103F00006228EDD06F28EBD07128E9D05328E7D094
:103F10003728E5D0A0F1BC040A2CE1D90923642894
:103F2000DED06728DCD06828DAD07528D8D076288B
:103F3000D6D07828D4D07928D2D03028D0D03828FC
:103F4000CED03928CCD0113C0A2CC9D9103C042C35
:103F5000C6D91634052CC3D99534042CC0D9AB2846
:103F6000BED00A236B28BBD06E28B9D04528B7D065
:103F70004628B5D04A28B3D04C28B1D05028AFD06D
:103F80001F340A2CACD90B234228A9D04328A7D030
:103F90004428A5D05428A3D05528A1D012289FD0BA
:103FA0007C3C0A2C9CD90C23412899D0472897D0D7
:103FB000482895D04B2893D04F2891D051288FD0A6
:103FC00052288DD05A288BD0592889D0582887D08C
:103FD000441E102C84D97D3C102C81D95A3C042CD1
:103FE0009BD94E288BD056283FF457AF4D2806D08A
:103FF0006D2804D057287FF476AF102000E00F2002
:10400000C87030BD0C0000202DE9FF4F85B00D4673
:104010000021029114460A21B0FBF1F201FB1202C9
:10402000B0FBF1F0009203901AB1A41DE4B2601D40
:1040300003E00120029004F10B00C6B24FF0000B28
:1040400005F1070A28E000224FFA8AFE6F1E684831
:10405000714600EB822310E0204603EB811908E053
:1040600039B309EB000C1CF8408C09F80080401CA7
:10407000C0B2B042F4D3491E49B2B942ECDC521C82
:10408000D2B2032AE3D31420FCF75CFDFEF742FC16
:104090000BF1010000F0FF0B08988345D3D34FF0DC
:1040A00007095349002300BF0AF0FF0201EB8328F0
:1040B00014E04FF0000C03F800C0D8E7204608EBEE
:1040C000821707E007EB000C1CF840CC07F800C093
:1040D000401CC0B2B042F5D3521ED2B2AA42EDDCAF
:1040E0005B1CDBB2032BDFD302984FF000020028E9
:1040F0004048807844D004F105080490039B02EB0B
:10410000820EC3EB0317049B09EB890BC3EB03136C
:1041100003EB830C384B204603EB0C1303EBC70770
:10412000019307EBCE0701EB82235F4403EB85137A
:1041300008E000BFA0EB040C17F80CC003F800C0A7
:10414000401CC0B24045F5D3DDE900C7CCEB0C1CE8
:1041500007EBCC0CA01D0CEBCE07C0B25F4408E00F
:10416000A0EB040CBC441CF806CC03F800C0401CB7
:10417000C0B2B042F4D3521CD2B2032ABED327E05D
:10418000C0EB00101C4B00EB800003EB0010009B09
:1041900009EB890BC3EB031300EBC30802EB8207A7
:1041A00008EBC70707EB0B0301EB8227204607EB61
:1041B000851707E0A0EB040C13F80CC007F800C04B
:1041C000401CC0B2B042F5D3521CD2B2032AE5D390
:1041D0001420FCF7B7FCFEF79DFBA9F1010040B2EB
:1041E0005FEA00097FF55DAF09B0BDE8F08F000020
:1041F000480200200C000020688D00082DE9FF4FC8
:104200000D4685B0002114460A220191B0FBF2F15F
:1042100002FB1101B0FBF2F00091039021B10B34CD
:10422000E4B204F10A0003E00120019004F115005A
:10423000C6B24FF0000A05F10E0728E0DFF8B8B16A
:104240000022A5F10108F9B20BEB822910E020460B
:1042500009EB811308E000BF03EB000C1CF840CC15
:1042600003F800C0401CC0B2B042F5D3491EC9B229
:104270004145ECDC521CD2B2032AE4D30A20FCF7FD
:1042800061FCFEF747FB0AF1010000F0FF0A089904
:104290008A45D3D34FF00E0ADFF85C910022F9B2C1
:1042A00009EB822810E0204608EB811308E000BFEC
:1042B00003EB000C1CF840CC03F800C0401CC0B25B
:1042C000B042F5D3491EC9B2A942ECD8521CD2B2B1
:1042D000032AE4D301984FF0000100284748807872
:1042E0004ED004F10A0B0490039ADDF810C0C2EB23
:1042F0004213C3EB022240F265430CFB03FC404B2C
:104300000AEB8A0E03EB8C08C1EB011303EB83036A
:1043100008EB420202EB4302029302EB4E0309EB6D
:104320008122204602EB851208E000BFA0EB040CBE
:1043300013F80CC002F800C0401CC0B25845F5D3B9
:10434000009B04F10B00C3EB431CCCEB032308EBF5
:10435000430C029BC0B20CEB430303EB4E0308E09B
:10436000A0EB040C9C441CF80BCC02F800C0401CD1
:10437000C0B2B042F4D3491CC9B20329B4D32BE074
:1043800040F2654250431E4ACB4602EB8000009A41
:104390000AEB8A09C2EB4213C3EB022200EB42088C
:1043A000C1EB011202EB820208EB420202EB49036D
:1043B0000BEB8122204602EB851207E0A0EB040CF8
:1043C00013F80CC002F800C0401CC0B2B042F5D3D4
:1043D000491CC9B20329E3D30A20FCF7B3FBFEF75B
:1043E00099FAAAF1010040B25FEA000A7FF554AFE2
:1043F00009B0BDE8F08F0000480200200C0000204A
:104400001847000830B58BB028216846FBF7A1FE9D
:1044100000246D4605EB840101222048FCF790F949
:104420000120FCF78FFB1D48FCF710FA641CE4B276
:104430000A2CEFD3DDE900010844DDE90212114442
:1044400008440499154A0844059984320844069999
:1044500008440799084408990844099908440A211E
:10446000B0FBF1F10E480162C069814201D2012026
:1044700005E000F59663994205D94FF496701168EE
:1044800008640BB030BD00F5FA73994201D9C82019
:10449000F5E7C8308142F4D96420F0E70401002038
:1044A0000C0000201CB51220074CCDE90040012370
:1044B0000022D021A4F61450FCF7D0FDFBF7FEFE3D
:1044C0000249607C48721CBD480E00200C00002090
:1044D0000EB5FCF787FFFEF7B2FBFEF705F96F4854
:1044E000416941F0010141614069002200F0010091
:1044F000009011460B20FCF7EBFF0B20FCF7DCFFD4
:10450000002211461120FCF7E3FF1120FCF7D4FF35
:10451000FEF754F9FEF790F9FEF7C4F8FEF7B6F986
:10452000FEF730F95F485E4E002740F6FF710660E7
:10453000C0E901714AF6AA2030605A48D030FDF730
:104540008DFB5948FDF78AFB57480C218038FDF751
:1045500063FDFFF757FF5548554C0068E061B0F523
:10456000C87F01D99620E0615FF00005FFF79AFF50
:104570000120FCF7E7FA6D1C322DF7DB4C4D24359A
:10458000687800F00300A070FFF778FB05F1510890
:10459000A06906280AD943483C30FCF7A3FC012057
:1045A000FCF7D0FA4CF6CC403060FEE7FFF77AFF1C
:1045B0006420FCF7C7FA2878A17A884208D0A7615E
:1045C000FFF720FF2878A0720A2804D000F072F8C4
:1045D000FEF766FDDCE768780521B0FBF1F201FB30
:1045E000120040B9FFF702F8012804D1207B0C2803
:1045F00010D001280ED0687800F00300A070FFF7FB
:104600000FF8FFF72DFA2771E773A7736078022878
:1046100040D12FE0002041460A5C5E2A1BD0401C9E
:104620001E28F9DBFF2060700021009701971023FE
:10463000402208460297FBF785FEFFF717FC27711B
:10464000E773A773FEF738FF20B3FEF763F9322054
:10465000FCF778FAF6E7AA794FF00A0CB2FBFCF304
:1046600030330B54B2FBFCF30CFB132240443032CA
:104670004270D7E7FFF716FF2878A17A8842C5D0A5
:10468000FFF7C0FE2878A072042327220021FFF73D
:10469000BBFCBBE7FFF7F2FA9AE70000001002400C
:1046A00000300040F80000200802002000FF010850
:1046B0000C00002010B5124800F124044178207845
:1046C00011B1012906D00AE0042333220821FFF7A3
:1046D0009BFC04E004232B220121FFF78FFD2078AF
:1046E00000280BD162781B210120FFF7ADFBA278D7
:1046F0000021BDE810400120FFF7A6BB10BD00005F
:104700000C00002003040504030A0908090A0A0B27
:104710000C0B0A0E0D0C0D0E00003C666666663C26
:104720000000003C66FFFFFFFF663C003C66FFFFA9
:10473000FFFFFFFF663C66ACACAC6666ACACAC663B
:10474000663333663C3C66333366660000660000C1
:10475000660000666600006600006600006666008F
:1047600000660000660000666600006600006600E5
:104770000066660000660000660000666637376601
:104780003C3C6637376666B7B7B76666B7B7B76695
:104790003C66FFFFFFFFFFFF663C003C66FFFFFF3C
:1047A000FF663C0000003C666666663C0000000058
:1047B00000000000000000000000000000000000F9
:1047C00000000000000000000000000000000000E9
:1047D00000000000000000000000000000000000D9
:1047E000001F1F000000001F1F0000A4A400000005
:1047F00000A4A40000FFFF00000000FFFF0000FF76
:10480000FF00000000FFFF0000FFFF00000000FFAE
:10481000FF0000FFFF00000000FFFF0000FFFFFFA0
:104820000000FFFFFF000000EDEDEDEDEDED0000FD
:104830000000006F6F6F6F000000000000000000BC
:104840000000000000000000000000000000000068
:1048500000787878780000000000F8F8F8F8F8F8A8
:10486000000000FFFFFF0000FFFFFF0000FFFF0050
:10487000000000FFFF0000FFFF00000000FFFF003E
:1048800000FFFF00000000FFFF0000F7F70000003E
:1048900000F7F700008F8F000000008F8F00001BD3
:1048A0001B000000001B1B000000000000000000B7
:1048B00000000000000000000000000000000000F8
:1048C00000000000000000000000000000000000E8
:1048D00000000000000000000000000000003C6636
:1048E000663C00000000003C66FFFF660000000020
:1048F0003C66FFFFFF660000003C66ACACACAC66FB
:1049000000000066333366333366000000660066DD
:10491000660000660000003C663C66000066000021
:104920000000000066000066000000000000660055
:104930000066000000000000660000660000000045
:1049400000006637376600000000000066B7B766F3
:1049500000000000000066FFFF660000000000008D
:1049600066FFFF660000000000003C66663C000039
:104970000000000000000000000000000000000037
:104980000000000000000000000000000000000027
:104990000000000000000000000000000000000017
:1049A000000000001F00001F1F00000000000000AA
:1049B00000A4A40000000000000000FFFF000000B1
:1049C0000000000000FFFF0000000000000000FFEA
:1049D000FF0000000000000000FFFF0000000000DA
:1049E000000000FFFF0000000000000000EDED00EF
:1049F000000000000000006F6F00000000000000D9
:104A000000000000000000000000000000000000A6
:104A10000000000000787800000000000000F8F8B6
:104A2000F8000000000000FFFFFFFF000000000092
:104A3000FFFF00FFFF0000000000FF0000FFFF007D
:104A400000000000000000FFFF0000000000000068
:104A500000F7F700000000000000008F8F0000004A
:104A600000000000001B1B00000000000000000010
:104A70000000000000000000000000000000000036
:104A80000000000000000000000000000000000026
:104A900000000000000000000000000000003C6674
:104AA0006666663C0000003C66FFFFFFFF663C0058
:104AB0003C66FFFFFFFFFFFF663C66ACACAC666682
:104AC000ACACAC66663333663C3C663333663C66FE
:104AD000663C00006600006600000000003C6600C6
:104AE0000066000000003C660000663C0000003CE0
:104AF000660000663C0000003C660000663C00006A
:104B0000003C663737663C0000003C66B7B7666617
:104B10006666663C66FFFFFFFFFFFFFFFF6666FFFE
:104B2000FFFFFFFFFFFFFF663C6666666666666620
:104B3000663C0000000000000000000000000000D3
:104B40000000000000000000000000000000000065
:104B50000000000000000000000000000000000055
:104B600000000000000000000000001F1F00000007
:104B70000000000000A4A400000000000000FFFFEF
:104B800000000000000000FFFF0000000000000027
:104B9000FFFF00000000000000FFFF000000000019
:104BA0000000FFFF00000000000000EDEDEDEDED66
:104BB000EDEDED00006F6F6F6F6F6F6F6F000000B6
:104BC00000000000000000000000000000000000E5
:104BD0000000000000787878780000000000F8F805
:104BE000F8F8F8F8000000FFFFFF0000FFFFFF00EB
:104BF00000FFFF00000000FFFF00000000000000B9
:104C000000FFFF0000000000000000FFFF000000A8
:104C100000000000F7F7000000000000008F8F0088
:104C20000000000000001B1B00000000000000004E
:104C30000000000000000000000000000000000074
:104C40000000000000000000000000000000000064
:104C50000000000000000000000000000000000054
:104C60003C6666663C000000003C66FFFFFF66662F
:104C70003C003C66FFFFFFFFFFFF660066ACAC66D2
:104C80006666ACAC66003C66663C00663333660024
:104C90000000003C66660000660000000066000040
:104CA00000663C000000006600000000663C00005A
:104CB000003C6666660000663C66663C0000660076
:104CC00000666637376600006637376666B7B766D0
:104CD000666666B7B7663C66FFFFFFFFFFFF663C90
:104CE000003C66FFFFFFFF663C0000003C66666616
:104CF000663C000000000000000000000000000012
:104D000000000000000000000000000000000000A3
:104D10000000000000000000000000000000000093
:104D20000000000000000000000000001F1F000045
:104D300000000000A4A4A400000000000000FFFF89
:104D4000FFFF000000000000000000FFFF00000067
:104D50000000000000FFFF0000FFFF00000000FF58
:104D6000FF0000FFFF00000000FFFF000000EDED6E
:104D7000EDEDEDED00000000006F6F6F6F000000C3
:104D80000000000000000000000000000000000023
:104D900000000000000000787878000000000000AB
:104DA000F8F8F8F8F8F8000000FFFF000000FFFF37
:104DB0000000000000000000FFFF000000000000F5
:104DC0000000FFFF000000000000FFFFFF000000E8
:104DD00000000000F7F7F7F70000000000000000F7
:104DE000008F8F00000000000000001B1B0000006F
:104DF00000000000000000000000000000000000B3
:104E000000000000000000000000000000000000A2
:104E10000000000000000000000000000000000092
:104E2000000000003C66663C00000000003C66FF9D
:104E3000FF66000000000066FFFFFF660000000044
:104E40003C66ACACAC660000003C66333333336682
:104E50000000006600006600006600003C6600007E
:104E600066000066000066000066660000660000DE
:104E70000000666666000066663C000000000000F8
:104E8000000000663737373737373737376666669B
:104E9000666666B7B766663C0000000066FFFF66A0
:104EA00000000000000066FFFF6600000000000038
:104EB0003C66663C000000000000000000000000AE
:104EC00000000000000000000000000000000000E2
:104ED00000000000000000000000000000000000D2
:104EE000000000000000000000001F1F001F1F0046
:104EF00000000000A4A400A4A400000000FFFF0024
:104F000000FFFF000000FFFF000000FFFF000000A7
:104F1000FFFFFFFFFFFFFFFFFF00FFFFFFFFFFFFA0
:104F2000FFFFFF000000000000FFFF000000000086
:104F3000000000EDED00000000000000006F6F00B9
:104F40000000000000000000000000000000000061
:104F50000000000000000000000000787800000061
:104F600000000000F8F8F800000000000000FFFF5B
:104F7000FF000000000000FFFFFFFF000000000036
:104F8000FFFF00FFFF0000000000FFFF00FFFF0029
:104F9000000000F7F70000F7F70000008F8F000017
:104FA000008F8F0000001B1B1B1B1B1B1B1B1B00F0
:104FB00000000000000000000000000000000000F1
:104FC00000000000000000000000000000000000E1
:104FD00000000000000000000000000000000000D1
:104FE00000003C666666666666663C3C66FFFFFFE0
:104FF000FFFFFFFFFF6666FFFFFFFFFFFFFFFF668C
:1050000066ACAC66666666663C3C6633336666666E
:105010006600000066000000000000663C006600BC
:10502000000000000000663C6600006666666600E0
:1050300000663C66663C0000660000663C66663CB6
:105040000000660000666637376600006637376620
:1050500066B7B766666666B7B7663C66FFFFFFFF72
:10506000FFFF663C003C66FFFFFFFF663C00000060
:105070003C666666663C0000000000000000000020
:105080000000000000000000000000000000000020
:105090000000000000000000000000000000000010
:1050A00000000000000000000000001F1F1F1F1F65
:1050B0001F00000000A4A4A4A4A4A4A4000000FF56
:1050C000FF00000000FFFF0000000000000000FFE4
:1050D000FF0000000000000000FFFF0000FFFF00D5
:1050E000000000FFFF0000FFFF00000000FFFF00C6
:1050F0000000EDEDEDEDEDED00000000006F6F6FD5
:105100006F00000000000000000000000000000030
:105110000000000000000000007878787878787847
:10512000780000F8F8F8F8F8F8F8F80000FFFF0049
:1051300000000000000000FFFF0000000000000071
:1051400000FFFFFFFFFFFF00000000FFFFFFFFFF6A
:10515000FFFF000000F7F700000000F7F700000075
:1051600000000000008F8F00000000000000001B06
:105170001B00000000000000000000000000000014
:10518000000000000000000000000000000000001F
:10519000000000000000000000000000000000000F
:1051A0000000000000003C666666663C0000003CB3
:1051B00066FFFFFFFF663C000066FFFFFFFFFFFF8B
:1051C000663C3C66ACAC666666ACAC666633336621
:1051D0003C003C66663C660000666666663C000015
:1051E00066000066000000663C00660000000000EB
:1051F0000000663C660000006666660000666600A9
:1052000000663C0066000066663737663C0066371D
:1052100037663C66B7B7666666B7B7660066FFFF77
:10522000FFFFFFFF663C003C66FFFFFFFF663C00A0
:1052300000003C666666663C00000000000000005E
:10524000000000000000000000000000000000005E
:10525000000000000000000000000000000000004E
:10526000000000000000000000000000001F1F0000
:1052700000000000000000A4A400A4A4A4000000FA
:1052800000FFFFFFFFFFFFFF000000FFFFFF000028
:1052900000FFFF0000FFFF00000000FFFF0000FF15
:1052A000FF00000000FFFF000000FFFF000000FF04
:1052B000FF000000EDEDEDEDEDED00000000006FF2
:1052C0006F6F6F0000000000000000000000000091
:1052D0000000000000000000000000000078787866
:1052E000780000000000F8F8F8F8F8F80000000076
:1052F000FFFF000000FFFF0000FFFF0000000000B4
:10530000000000FFFF0000000000000000FFFF00A1
:10531000FFFFFF00000000F7F7F7F7F7F7F70000CF
:10532000008F8F8F0000008F8F00001B1B0000007C
:10533000001B1B0000000000000000000000000037
:10534000000000000000000000000000000000005D
:10535000000000000000000000000000000000004D
:105360000000000000003C66666666666666663C95
:1053700066FFFFFFFFFFFFFFFF6666FFFFFFFFFF08
:10538000FFFFFF663C666666666666AC663C0000CC
:1053900000003C66333366000000000066000066D3
:1053A0003C000000003C6600006600000000006653
:1053B0000000663C0000000000660000660000007F
:1053C0000000006600006600000000003C66373701
:1053D00066000000000066B7B7663C0000000000F1
:1053E00066FFFF6600000000000066FFFF66000029
:1053F000000000003C66663C000000000000000069
:10540000000000000000000000000000000000009C
:10541000000000000000000000000000000000008C
:10542000000000000000000000000000000000007C
:105430000000001F1F0000000000000000A4A400E6
:10544000000000000000FFFF00000000000000005E
:10545000FFFF0000000000000000FFFF0000000050
:1054600000000000FFFF00000000000000FFFF0040
:1054700000000000000000EDED0000000000000052
:10548000006F6F000000000000000000000000003E
:1054900000000000000000000000000000787878A4
:1054A00078787878780000F8F8F8F8F8F8F8F800E4
:1054B00000000000000000FF0000000000000000ED
:1054C000FFFF00000000000000FFFF0000000000E0
:1054D000000000FFFF00000000000000F7F70000E0
:1054E0000000000000008F8F00000000000000009E
:1054F0001B1B000000000000000000000000000076
:10550000000000000000000000000000000000009B
:10551000000000000000000000000000000000008B
:10552000000000000000000000003C666666663C6B
:105530000000003C66FFFFFFFF663C003C66FFFF8B
:10554000FFFFFFFF663C66ACAC66666666ACAC66A9
:10555000663333660000663333666600006666664F
:10556000660000663C66000000000000663C3C6689
:10557000000000000000663C66000066666666008B
:1055800000666600006600006600006666373766E3
:1055900000006637376666B7B766666666B7B76691
:1055A0003C66FFFFFFFFFFFF663C003C66FFFFFF1E
:1055B000FF663C0000003C666666663C000000003A
:1055C00000000000000000000000000000000000DB
:1055D00000000000000000000000000000000000CB
:1055E00000000000000000000000000000000000BB
:1055F000001F1F000000001F1F000000A4A4A4A49F
:10560000A4A400000000FFFFFFFFFFFF000000FF59
:10561000FF00000000FFFF0000FFFF00000000FF90
:10562000FF0000FFFF00000000FFFF0000FFFF0081
:10563000000000FFFF000000EDEDEDEDEDED0000DE
:105640000000006F6F6F6F0000000000000000009E
:10565000000000000000000000000000000000004A
:1056600000787878780000000000F8F8F8F8F8F88A
:10567000000000FFFF00000000FFFF0000FFFF0030
:10568000000000FFFF0000FFFF00000000FFFF0020
:105690000000FFFFFFFFFFFF00000000F7F7F7F734
:1056A000F7F70000008F8F000000008F8F00001BB5
:1056B0001B000000001B1B00000000000000000099
:1056C00000000000000000000000000000000000DA
:1056D00000000000000000000000000000000000CA
:1056E0000000000000000000000000003C6666664C
:1056F000663C0000003C66FFFFFFFF663C003C6626
:10570000FFFFFFFFFFFF663C66ACAC66666666ACFB
:10571000AC66663333660000663333666600006647
:10572000003C660000666600006666660000006673
:105730003C660000000000000066003C66000000BF
:105740006600006600003C666666660000663C66B1
:10575000663C003C6637376666B7B7666666B7B7BD
:10576000663C3C66FFFFFFFFFFFF6600003C66FFF4
:10577000FFFFFF663C0000003C666666663C00007A
:105780000000000000000000000000000000000019
:105790000000000000000000000000000000000009
:1057A00000000000000000000000000000000000F9
:1057B0000000001F1F000000001F1F0000A4A40025
:1057C0000000A4A4A4000000FFFFFFFFFFFFFF00F4
:1057D000000000FFFFFF00FFFF00000000000000CE
:1057E00000FFFF0000000000000000FFFF0000FFBE
:1057F000FF000000FFFF00000000EDEDEDEDEDED1E
:1058000000000000006F6F6F6F00000000000000DC
:105810000000000000000000000000000000000088
:10582000000000787878780000000000F8F8F8F8B8
:10583000F8F8000000FFFF00000000FFFF0000FF7D
:10584000FF00000000FFFF0000FFFF00000000FF5E
:10585000FF0000FFFF000000FFFFFF000000F7F760
:10586000F7F7F7F7F7000000008F8F8F008F8F009A
:10587000000000000000001B1B00000000000000F2
:105880000000000000000000000000000000000018
:105890000000000000000000000000000000000008
:1058A00000000000000000000000000000000407ED
:1058B000070707040000000407FFFFFFFF070400BD
:1058C0000407FFFFFFFFFFFF070407FFFFFF0707B6
:1058D000FFFFFF0707FFFF07040407FFFF0707FF9E
:1058E000FF07000007FFFF0707FFFF07000007FF94
:1058F000FF0707FFFF07000007FFFF0707FFFF077E
:10590000000007FFFF0707FFFF07000007FFFF0773
:1059100007FFFF07040407FFFF0707FFFFFF070755
:10592000FFFFFF070407FFFFFFFFFFFF070400045F
:1059300007FFFFFFFF070400000004070707070435
:10594000000000000204040404020000000204003D
:105950000000000402000204000000000000040235
:10596000040000000404000000040400000402021B
:10597000040000040400000400000400000404000B
:1059800000040000040000040400000400000400FF
:1059900000040400000400000400000404000004EB
:1059A00000000400000404000004020204000004DB
:1059B00004000000040400000004020400000000D1
:1059C00000000402000204000000000402000000C5
:1059D00002040404040200000000233C3C3C3C237D
:1059E000000000233C000000003C2300233C00009A
:1059F000000000003C233C0000003C3C0000003C58
:105A00003C00003C23233C00003C3C00003C0000E8
:105A10003C00003C3C00003C00003C00003C3C00E2
:105A2000003C00003C00003C3C00003C00003C000E
:105A3000003C3C00003C00003C00003C3C00003CC2
:105A400023233C00003C3C0000003C3C0000003CA8
:105A5000233C0000000000003C2300233C00000029
:105A6000003C23000000233C3C3C3C2300000000A1
:105A700000000407070400000000000407FFFF0700
:105A8000000000000407FFFFFF070000000407FFFD
:105A9000FFFFFF0700000007FFFF07FFFF070000F1
:105AA0000007FF0707FFFF0700000004070407FFC8
:105AB000FF0700000000000007FFFF0700000000D4
:105AC000000007FFFF0700000000000007FFFF07BE
:105AD00000000000000007FFFF07000000000000BA
