:020000040800F2
:100000004898002021020008F9810008433E0008BA
:10001000957F00081D14000859BF0008000000006B
:1000200000000000000000000000000009AC000813
:1000300095200008000000004D8A0008CDB400089B
:100040003B0200083B0200083B0200083B0200089C
:100050003B0200083B0200083B0200083B0200088C
:100060003B0200083B0200083B0200083B0200087C
:100070003B0200083B0200083B0200083B0200086C
:100080003B0200083B0200083B0200083B0200085C
:1000900079BE00083B0200083B0200083B02000852
:1000A0003B0200083B0200083B0200083B0200083C
:1000B00061B800083B0200083B0200083B02000850
:1000C0003B0200083B0200083B0200083B0200081C
:1000D0003B020008F9B800083B0200083B02000898
:1000E0003B0200083B020008E3BC00083B0200089A
:1000F0003B0200083B0200083B0200083B020008EC
:100100003B0200083B0200083B0200083B020008DB
:100110003B0200083B0200083B0200083B020008CB
:100120003B0200083B0200083B0200083B020008BB
:1001300000F002F800F065F80AA090E8000C824494
:100140008344AAF10107DA4501D100F05AF8AFF271
:10015000090EBAE80F0013F0010F18BFFB1A43F0A5
:1001600001031847CC070100EC0701000A444FF0D7
:10017000000C10F8013B13F0070408BF10F8014B06
:100180001D1108BF10F8015B641E05D010F8016B4B
:10019000641E01F8016BF9D113F0080F1EBF10F8AF
:1001A000014BAD1C0C1B09D16D1E58BF01F801CBD2
:1001B000FAD505E014F8016B01F8016B6D1EF9D555
:1001C0009142D6D37047000000230024002500266A
:1001D000103A28BF78C1FBD8520728BF30C148BFAA
:1001E0000B607047642900F01981782900F0528172
:1001F000732900F0DC82002070471FB51FBD10B5C9
:1002000010BD00F0D8FA1146FFF7F7FF0DF078FFA8
:1002100000F0F6FA03B4FFF7F2FF03BC00F0FAFABD
:100220000948804709480047FEE7FEE7FEE7FEE78A
:10023000FEE7FEE7FEE7FEE7FEE7FEE704480549C6
:10024000054A064B70470000D1B400083101000890
:1002500048920020489800204894002048940020AC
:1002600053EA020C00F069802DE9F04B4FF00006D4
:10027000002B1FBFB3FA83F503FA05F424FA05F641
:100280005E4012BF1643B2FA82F502FA05F4C5F1D8
:1002900020051EBF22FA05FC44EA0C04203556EA6C
:1002A000044C4FEA144418BF641C4FF000084FF090
:1002B0000009904271EB030C39D3002919BFB1FA40
:1002C00081F701FA07F6B0FA80F700FA07F6C7F1EE
:1002D00020071EBF20FA07FC46EA0C062037B6FBB3
:1002E000F4FCA7EB0507103F07F01F0BCBF120062E
:1002F0000CFA0BFB2CFA06F644BFB3460026202F5F
:10030000A4BF5E464FF0000B5BEA060C08BF4FF03F
:10031000010B19EB0B09ABFB027C48EB0608C01B79
:1003200006FB02CC0BFB03CC71EB0C01C1E70B46C7
:10033000024641464846BDE8F08B13B54FF0000039
:100340004FF00001AFF30080BDE81C407047000093
:100350000FB41CB5074B06AA7B446946009005986C
:1003600000F0FBF90020694600F00AFA1CBC5DF8B9
:1003700014FB00002504000070B504468569006880
:10038000C10601D5302600E02026C00708D070BD88
:10039000D4E9012130469047206A00F10100206233
:1003A0006D1EF5D570BD70B5044685690078C0072F
:1003B00008D170BDD4E9012120209047206A00F1C6
:1003C000010020626D1EF5D570BD70B50C46054666
:1003D000012A05D02878800600D5EA69002302E0CA
:1003E000012305E05B1C934202D2E05C0028F9D1B6
:1003F000A869E618C01AA861286A18442862284625
:10040000FFF7BAFF04E0D5E9012114F8010B90478A
:10041000B442F8D32846FFF7C6FF70BD2DE9F0417E
:100420000646002410687529314616A511D0AFF391
:100430000080002803DAC0F1000013A507E031684E
:100440008A0701D511A502E0490704D510A50124AA
:1004500001E0AFF3008000210A2306F1240707E042
:10046000B0FBF3F203FB1200303078541046491C05
:100470000028F5D123462A463046BDE8F04100F079
:100480000AB90000000000002D0000002B00000051
:100490002000000070B504460D4621461068AFF3F9
:1004A00000802188090502D5104A7A4402E00F4AEB
:1004B0007A440E32002104F1240307E000F00F0615
:1004C0004FEA1010965D5E5401F101010028F5D14C
:1004D00003462078000704D5702D02D009B11132EF
:1004E00002232046BDE8704000F0D5B84704010063
:1004F0002DE9F05F894604464FF0000ADFF828B185
:10050000FB44C0F820A02046E168884700287CD042
:10051000252806D0D4E901219047206A401C20629A
:10052000F1E700255F462046E16888472028064617
:1005300008DB312E06D207EB060010F8200C08B1BC
:100540000543F0E7A80701D525F00405C4F81CA071
:100550000027C4F818A02A2E09D030460BF0DAFD87
:1005600038B304EB8708303EC8F8186019E059F832
:10057000041B204604EB87029161E1688847012F44
:10058000064618D1E069002820DA25F020051DE094
:10059000D8F8180000EB800006EB40003038C8F8AF
:1005A00018002046E168884706460BF0B3FD002896
:1005B000EED1012F0AD02E2E08D12046E1688847BF
:1005C0007F1C0646022F45F02005C4DBA0690028E9
:1005D00003DA404245F00105A061E80701D025F0AB
:1005E000100596B1A6F14100192802D8203645F42D
:1005F00000654A463146204625604D46FFF7F2FD2C
:1006000060B1012807D0ED1D00E009E025F00700EA
:1006100000F1080977E705F1040974E7304679E746
:10062000206ABDE8F09F00001904010010B5203ACF
:10063000C0F00B80B1E81850203AA0E81850B1E89B
:100640001850A0E81850BFF4F5AF5FEA027C24BF51
:10065000B1E81850A0E8185044BF18C918C0BDE848
:1006600010405FEA827C24BF51F8043B40F8043B11
:1006700008BF7047D20728BF31F8023B48BF11F8C6
:10068000012B28BF20F8023B48BF00F8012B704720
:100690007047704770472DE9F0470D4699469246DE
:1006A000044600F124080168880604D5E06921F0B9
:1006B0001001216000E00120A84202DDA0EB050747
:1006C00000E00027A16907EB050202EB0900A1EB9E
:1006D0000000A0612078C00602D42046FFF74CFE3F
:1006E000002608E0D4E901211AF806009047206AA4
:1006F000401C761C20624E45F4DB2078C0060AD5EB
:100700002046FFF739FE06E0D4E90121302090476A
:10071000206A401C2062381EA7F10107F4DC07E0C4
:10072000D4E9012118F805009047206A401C206296
:10073000281EA5F10105F3DC2046FFF734FE2078E2
:10074000000602D50220BDE8F0870120FBE700008B
:1007500001694A1C02610878704700B58FB0CDE985
:1007600001310021059105497944CDE90310114675
:100770006846FFF7BDFE0FB000BD0000E5FFFFFFBC
:100780000A6802F8010B0A60704710B5436913B19B
:10079000AFF3008001E0FFF718FE012010BD1278D2
:1007A00000F124010A7000224A700122EDE711686D
:1007B0004FF0FF32E9E7754600F028F8AE46050035
:1007C0006946534620F00700854618B020B5FFF76C
:1007D00035FDBDE820404FF000064FF000074FF018
:1007E00000084FF0000B21F00701AC46ACE8C0094F
:1007F000ACE8C009ACE8C009ACE8C0098D46704758
:100800000446AFF300802046FFF704FD0048704720
:10081000E491002001491820ABBEFEE7260002004B
:10082000704710B503F03AFB10BD70B504460026C2
:1008300003F0F4FBA02003F0B3FB03F03FFC201215
:1008400003F0AEFB03F03AFC2546E11704EB11611F
:100850000912A4EB0121C8B203F0A2FB03F02EFCA5
:1008600003F0DCFBA12003F09BFB03F027FC00203E
:1008700003F05CFB064603F0F9FB304670BD70B533
:1008800004460E4603F0CAFBA02003F089FB03F0E8
:1008900015FC201203F084FB03F010FC2546E11741
:1008A00004EB11610912A4EB0121C8B203F078FB3B
:1008B00003F004FC304603F073FB03F0FFFB03F08E
:1008C000D5FB07200BF028FE70BD00002DE9F0419C
:1008D00005460C4616469846B5F5805F01DBBDE837
:1008E000F081A019B0F5047F00DDF8E716B9C4F572
:1008F000047086B200F0B8F808211D4802F009FD26
:10090000532008F0B3FDC5F3871008F0AFFDA9062A
:10091000080E08F0ABFD002008F0A8FD08211448DF
:1009200002F02AFD00F0A0F80821114802F0F1FCC5
:10093000D42008F09BFD002008F098FD201208F05C
:1009400095FDE0B208F092FD002008F08FFD002731
:1009500006E0FF2008F08AFD08F80700781C87B23F
:10096000B742F6DB0821024802F006FD00BFB6E7F9
:10097000000801402DE9F04104460D461646984610
:10098000B4F5805F01DBBDE8F081A819B0F5047F04
:1009900000DDF8E716B9C5F5047086B200F064F81A
:1009A00008211D4802F0B5FC552008F05FFDC4F396
:1009B000871008F05BFDA106080E08F057FD002027
:1009C00008F054FD0821144802F0D6FC00F04CF861
:1009D0000821114802F09DFC852008F047FDC4F372
:1009E000871008F043FDA106090E41EA252008F012
:1009F0003DFDE8B208F03AFD002705E018F80700D1
:100A000008F034FD781C87B2B742F7DB08210248B2
:100A100002F0B2FC00BFB6E70008014010B500F0DC
:100A200023F808210F4802F074FC9F2008F01EFDF7
:100A3000FF2008F01BFD44EA0064FF2008F016FDCB
:100A400044EA0044FF2008F011FD44EA0024FF209E
:100A500008F00CFD04430821024802F08DFC2046FA
:100A600010BD00000008014010B50024082109480D
:100A700002F04FFCD72008F0F9FC03E0FF2008F05B
:100A8000F5FC044614F0800FF8D00821014802F06C
:100A900073FC10BD000801402DE9F0438BB0AAA201
:100AA000D2E900109268CDE909020891A9A207CA0B
:100AB00003AB07C3AAA207CA8DE807004FF480540E
:100AC000AAA20021084604F0DDF9ADA20121002010
:100AD00004F0D8F9AFA20321002004F0D3F904F008
:100AE000B7F8502109200AF0A7FF50B905200BF0F4
:100AF00013FDF220AC490870092103A80AF0B8FFE1
:100B000005E0F120A84908700BB0BDE8F083002093
:100B1000A6490880502109200AF08EFFA8B9A448F0
:100B2000807801280DD105200BF0F6FCF3209E49BA
:100B3000087000209D4908800B2168460AF098FF44
:100B400007E0F12098490870DEE7F1209649087027
:100B5000DAE7BEE0A4F580594FEAE97009EB90703E
:100B6000821094A19748FFF7F3FB964A02210020D8
:100B700004F088F987A20321002004F083F904F02F
:100B800067F850210B200AF057FF002870D1092187
:100B9000874800F071FE80464DF6FE7088EA000836
:100BA0008348477A4FF6FF7000EA07278048807A2B
:100BB000384487B2B84560D10026002505E07C485E
:100BC000405D0DF80500681CC5B20B2DF7DB7848B9
:100BD00041782046FFF753FE754A9178621C90B227
:100BE000FFF74DFE724AD178A21C90B2FFF747FE84
:100BF0006F4A1179E21C90B2FFF741FE6C4A5179BD
:100C0000221D90B2FFF73BFE694A9179621D90B2B6
:100C1000FFF735FE664AD179A21D90B2FFF72FFE8D
:100C2000634A117AE21D90B2FFF729FE07200BF00C
:100C300073FC00205D4908800B2168460AF018FF0C
:100C40005B484078FF2803D059484079FF2810D1ED
:100C50005DA20221002004F015F94EA2032100201C
:100C600004F010F903F0F4FFF1204F49087031E06F
:100C700017E004F1080084B22BE0701CC6B20A2E03
:100C800027DD56A20221002004F0FCF841A2032136
:100C9000002004F0F7F803F0DBFFF1204249087070
:100CA00018E00B2168460AF0E3FE701CC6B20A2E5B
:100CB0000FDD4AA20221002004F0E4F835A203214E
:100CC000002004F0DFF803F0C3FFF120364908707C
:100CD00000E03FE700BF27E0502109200AF0ACFE0A
:100CE00010BB002031490880002508E0C5F105004F
:100CF0002F49085CC04306A94855681CC5B2052D9C
:100D0000F4DB2B488079C043C0B28DF81D0006A8E3
:100D100004F0A0FA05200BF0FFFB00202349088017
:100D2000092108A80AF0A4FE0121314802F0E8FADE
:100D30000028D1D100BF01212D4802F0E1FA00289E
:100D4000F9D000BFE0E60000F100000000000065FF
:100D500051000000F2010000000000B46300000038
:100D6000F3010100000000745E2F9300D6F7B0E598
:100D7000B2CECAFDB6C1B3F620202020000000008C
:100D80003D3D3D3D3D3D3D3D3D3D3D3D3D3D3D3D93
:100D900000000000202020202020202020202020D3
:100DA0002020202000000000840000208600002079
:100DB00054070020B6C1C8A1BDF8B6C8A3BA2535EE
:100DC0006420000034070020B6C1C8A1CDEAB3C931
:100DD000202020202020202000000000B6C1C8A133
:100DE000CAA7B0DCA3A12020202020200000000002
:100DF0000010014030B585B0002450A103C9CDE9F1
:100E0000030100254FA207CA8DE8070094E050A215
:100E10000021084604F036F852A20121002004F017
:100E200031F855A20221002004F02CF857A203212A
:100E3000002004F027F855B959A20221002004F03F
:100E400021F858A20321002004F01CF809E055A263
:100E50000221002004F016F851A20321002004F022
:100E600011F803F0F5FE502109200AF0E5FD10BB52
:100E700000204D490880002408E0C4F105004B49DA
:100E8000085CC04303A90855601CC4B2052CF4DB00
:100E900046488079C043C0B28DF8110003A804F021
:100EA000D9F905200BF038FB00203F4908800921C3
:100EB00068460AF0DDFD4FF480613D4802F020FAFB
:100EC00070B900BF4FF48061394802F019FA002868
:100ED000F8D015B9FFF7E0FD2EE000F06BF82BE03D
:100EE0004FF40061324802F00BFA48B900BF4FF4EA
:100EF00000612F4802F004FA0028F8D000251BE01A
:100F000020212B4802F0FCF940B900BF20212848DD
:100F100002F0F6F90028F9D001250DE0012124485E
:100F200002F0EEF940B900BF0121214802F0E8F9D2
:100F30000028F9D005B030BD69E700000037063958
:100F400079000000F1000000000000655100000081
:100F5000B2CECAFDB6C1D0B420202020202020204F
:100F6000000000003D3D3D3D3D3D3D3D3D3D3D3DA5
:100F70003D3D3D3D000000002020D6F7B0E5B2CE5B
:100F8000CAFDB6C1B3F62020000000002020B2CE7A
:100F9000CAFDD0B4C8EBD6F7B0E5202000000000B1
:100FA0002D3E000020200000860000205407002075
:100FB000001001402DE9F0438BB00027DCA207CAE6
:100FC00008AB07C3DDA2D2E900109268CDE90402A4
:100FD0000391DDA207CA8DE807004FF48054DDA21B
:100FE0000021084603F04EFFDFA20121002003F09C
:100FF00049FFE2A20321002003F044FF03F028FE92
:10100000502109200AF018FD50B905200BF084FA90
:10101000F220DF490870092103A80AF029FD05E044
:10102000F120DB4908700BB0BDE8F0830020D949FE
:101030000880502109200AF0FFFC002852D1D64830
:10104000807801284AD12046FFF7EFFB8DF8010098
:10105000611C88B2FFF7E9FB8DF80200A11C88B281
:10106000FFF7E3FB8DF80300E11C88B2FFF7DDFB1F
:101070008DF80400211D88B2FFF7D7FB8DF805001D
:10108000611D88B2FFF7D1FB8DF80600A11D88B263
:10109000FFF7CBFB8DF80700E11D88B2FFF7C5FB1A
:1010A0008DF808000921684600F0E6FB06464DF67B
:1010B000FE70464030128DF80900F0B28DF80A003B
:1010C00005200BF029FAF420B14908700020B1493D
:1010D00008800B2168460AF0CBFC07E0F120AC4900
:1010E0000870A0E7F120AA4908709CE7E5E0A4F5A4
:1010F00080594FEAE97009EB90708210A7A1AB48C4
:10110000FFF726F9A94A0221002003F0BBFE9BA2AB
:101110000321002003F0B6FE03F09AFD50210B20BE
:101120000AF08AFC00287DD1002508E01DF80500A2
:101130009949495D884200D003E0681CC5B20B2D77
:10114000F4DB00BF0B2D1DDA05200BF0E5F90020C4
:10115000904908800B2168460AF08AFC781CC7B2C7
:101160000A2FC3DD92A20221002003F08BFE83A28E
:101170000321002003F086FE03F06AFDF12084497C
:1011800008709BE0002704F1080084B22046FFF7B6
:101190004CFB8DF80100611C88B2FFF746FB8DF80F
:1011A0000200A11C88B2FFF740FB8DF80300E11C90
:1011B00088B2FFF73AFB8DF80400211D88B2FFF7D3
:1011C00034FB8DF80500611D88B2FFF72EFB8DF80A
:1011D0000600A11D88B2FFF728FB8DF80700E11D6E
:1011E00088B2FFF722FB8DF808000921684600F05D
:1011F00043FB06464DF6FE70464030128DF809005E
:10120000F0B28DF80A009DF801804FF6FF7000EAF9
:1012100008289DF8020040441FFA80F8A8F57F4096
:10122000FF3800E031E00ED166A2022103F02AFE71
:1012300052A20321002003F025FE03F009FDF12056
:10124000534908703AE005200BF066F90020514937
:1012500008800B2168460AF00BFC9DF80100FF286E
:1012600003D09DF80500FF2827D156A202210020B7
:1012700003F008FE41A20321002003F003FE03F067
:10128000E7FCF1204249087018E00B2168460AF09B
:10129000EFFB781CC7B20A2F0FDD45A20221002008
:1012A00003F0F0FD35A20321002003F0EBFD03F075
:1012B000CFFCF1203649087000E018E700BF27E0B6
:1012C000502109200AF0B8FB10BB002031490880EA
:1012D000002508E0C5F105002F49085CC04306A9B8
:1012E0004855681CC5B2052DF4DB2B488079C043F6
:1012F000C0B28DF81D0006A803F0ACFF05200BF06E
:101300000BF9002023490880092108A80AF0B0FB46
:101310000121314801F0F4FF0028D1D100BF0121A3
:101320002D4801F0EDFF0028F9D000BF7BE600005A
:10133000F10000000000006551000000F202000012
:101340000000008763000000F40101000000007449
:101350005E2F9300B2CECAFDD0B4C8EBD6F7B0E58D
:1013600020202020000000003D3D3D3D3D3D3D3D15
:101370003D3D3D3D3D3D3D3D000000002020202005
:1013800020202020202020202020202000000000DD
:10139000840000208600002054070020D0B4C8EB51
:1013A000BDF8B6C8A3BA2535642000003407002074
:1013B000D0B4C8EBCAA7B0DCA3A1202020202020F5
:1013C00000000000D0B4C8EBCDEAB3C9A3A120202F
:1013D00020202020000000000010014010B504462D
:1013E00024B1012C07D0022C15D10AE010210120D4
:1013F00009F0C0FC10E04FF48051022009F06AFCB3
:101400000AE01021012009F0B5FC4FF480510220C0
:1014100009F060FC00E000BF00BF10BD00BFFEE7A8
:101420000146CAB20B1243EA0220704710B50024ED
:1014300005E0A8480068005DA7490855641CA74856
:1014400000888442F5D3A4484068A5494860A24872
:1014500080688860A14800881F280FD00220FFF70D
:10146000BDFF00209C490860487B1A22052109F035
:101470003DFD0021012009F01BFD10BD9648C07BF9
:10148000282803D09448C07B2A2816D19248407C53
:1014900001069148807C41EA00418F48C07C41EAC6
:1014A00000208D49097D08438E4908608A48C17D26
:1014B000807D41EA00208C490860874800688B499C
:1014C00088426FD18448407B89490968884207D89F
:1014D0008148807B012803DB7F48807B10280DDD5D
:1014E0000220FFF77BFF7C49487B2422052109F07D
:1014F000FDFC0021012009F0DBFCE8E07648C07B20
:1015000025285FD01BDC15286FD00EDC08286DD095
:1015100006DC00285BD0032830D0042867D176E0B1
:101520000A286ED01228F9D12DE01A380A285ED286
:10153000DFE800F0392EB17D33B1B1B1B1438A2873
:101540006FD00EDC552867D006DC282844D02A2826
:101550004ED02F28E2D155E05A2829D08828DDD155
:1015600076E0A8286DD004DC8F286FD09E28D5D1D6
:1015700073E0AA287BD0AF28D0D182E05649487BBF
:1015800007F08EFE95E05449487B07F061FD90E03E
:101590005149487B07F098FE8BE04F49487B07F0A4
:1015A00093FE86E086E04C49487B07F0A1FD80E091
:1015B0004949487B07F092FD7BE04749487B07F0AB
:1015C0002BFE76E04449487B07F0D8FD71E04249A4
:1015D000487B07F081FE6CE03F49487B42490A683E
:1015E0004049096807F08EFD63E01BE024E052E00B
:1015F0003949487B3C490A683A49096807F0A8FE1E
:1016000057E02FE03449487B07F082FE51E0324931
:10161000487B07F005FD4CE02F49487B07F03CFD77
:1016200047E029E02C49487B07F036FD41E02A4994
:10163000487B07F031FD3CE02749487B07F02CFD53
:1016400037E02549487B07F027FD32E01EE00EE039
:101650002149487B07F020FD2BE01F49487B07F01C
:101660001BFD26E01C49487B07F016FD21E01A49C6
:10167000487B07F011FD1CE01749487B07F00CFD83
:1016800017E01549487B07F007FD12E01249487B37
:1016900007F002FD0DE00220FFF7A0FE0E49487B97
:1016A0002022052109F022FC0021012009F000FC84
:1016B00000BF0CE00220FFF791FE0749487B202283
:1016C000052109F013FC0021012009F0F1FB00BF06
:1016D000D3E60000280200207C9000202C0200208D
:1016E0009C900020300200203402002055534243D9
:1016F0009402002070B5034600201C78802C0BDA81
:101700001C78202C01DA20241C701C78A4F1200005
:101710001D4C04EB001035E019785A78A1291DDB27
:10172000AB291BDCA12A19DBA1290DDBA3290BDCCA
:10173000A12A09DBA2F1A104A1F1A105C5EB0516BF
:1017400006EB451504EB4500A92903D1A12A01DBCD
:1017500002F17900002404EB401013E0B02911DB02
:10176000F7290FDCA12A0DDBA2F1A104A1F1B0053C
:10177000C5EB051606EB451504EB450046F6C0150E
:1017800005EB401070BD0000C0B703002DE9F05F0D
:10179000824600250026AB4614E03548008810F448
:1017A000807F00D00FE00BF101001FFA80FBD345D2
:1017B00005DD00202E4908800120BDE8F09F0120B2
:1017C0000AF0AAFEE9E700BF294890F8009000203F
:1017D0002749088080461DE0264908F102000E5C7A
:1017E00085EA062085B200270EE015F4004F05D0EB
:1017F00041F2210080EA450085B203E04FF6FF7018
:1018000000EA4505781CC7B2082FEEDB08F101009D
:1018100000F0FF08A9F107004045DDDC00260027A5
:101820001EE04FF6FF7000EA0616A9F105003844E5
:1018300010490C5C2F2C06DD3A2C04DAA4F13000A0
:10184000304486B20AE0402C06DD472C04DAA4F1CD
:101850003700304486B201E00120AEE7781CC7B201
:10186000042FDEDBAE4201D10020A6E70120A4E771
:10187000860000205407002070B502464FF6FF7026
:10188000002411E012F8014B604000230AE010F040
:10189000010F04D04AF2010585EA600000E0401023
:1018A0005D1CEBB2082BF2DB0D00A1F10106F1B2D9
:1018B000E8D170BD70B502460020002417E012F890
:1018C000014B80EA0425A8B200230EE010F4004F7B
:1018D00005D041F2210585EA4005A8B203E04FF6A4
:1018E000FF7505EA40005D1CEBB2082BEEDB0D0036
:1018F000A1F10106F1B2E2D170BD000008B50020EF
:10190000009015E19048008800F00F008F490870A2
:101910000846007800287DD18D4800688D490880F0
:101920000846008800F030008B490880894800880C
:1019300000F4405087490880854909684BF6BF721A
:1019400001EA020080F4005080F0200040F40041E1
:1019500041F080017E4A11607B48008810F0100F32
:1019600032D11046006848F60F71084011460860F1
:1019700003F0A0F8764909684BF6BF7201EA02004D
:101980007449098811F4805F01D080F48050714956
:10199000098811F4005F01D080F400506E49098875
:1019A00011F0100F01D080F010006B49098811F080
:1019B000200F01D080F0200081B241F4004141F0BD
:1019C0008001634A116008BD6148006880B20090E0
:1019D000BDF8000010F4006F36D05D480068C0F319
:1019E0000E0048F68F7108405949086009F08EFAD8
:1019F000574909684BF6BF7201EA02005549098848
:101A000011F4805F01D080F480505249098811F4AC
:101A1000005F00E052E001D080F400504E49098898
:101A200011F0100F01D080F010004B49098811F01F
:101A3000200F01D080F0200081B241F4004141F03C
:101A40008001434A1160BEE7BDF8000010F4004F6A
:101A50006ED03F480068C0F30E0048F68F71084012
:101A60003B49086006F0B6FF394909684BF6BF727A
:101A700001EA02003749098811F4805F01D080F43F
:101A800080503449098811F4005F01D080F400507F
:101A90003149098811F0100F01D080F010002E4953
:101AA000098811F0200F01D080F0200081B241F4AC
:101AB000004141F08001264A116084E72348007804
:101AC000234951F8200080B20090BDF8000010F4C6
:101AD000004F14D01D48007851F82000C0F30E00CC
:101AE00048F68F71084019490978194A42F82100CF
:101AF00016490978491E194A52F821008047BDF855
:101B0000000010F0800F13D010480078104951F8F1
:101B1000200048F60F7108400C4909780C4A42F839
:101B200021000A490978491E0D4A52F821008047D0
:101B300007484430006880B20349088010F4004F21
:101B40007FF4E0AE00BF3EE790020020400100209D
:101B5000005C004054010020560100207402002067
:101B600058020020094951F8201011F4804F0BD081
:101B7000064951F8201048F68F7211404CF280024D
:101B80001143024A42F8201070470000005C0040F8
:101B9000094951F8201011F0400F0BD0064951F8B7
:101BA000201048F68F72114048F2C0021143024AD9
:101BB00042F8201070470000005C0040064951F8D0
:101BC000201048F68F62114048F280021143024A09
:101BD00042F8201070470000005C00402DE9F04101
:101BE00088B01F263602FF363602F7363602E83650
:101BF00008252D02ED1C2D02F8352D0200BF002412
:101C000008E0305DC04305A90855285D02A90855C4
:101C1000601CC4B20C2CF4DBA88987B200240BE052
:101C200005A8005D02A9095D884203D0012008B023
:101C3000BDE8F081601CC4B20C2CF1DB0C2105A8BE
:101C4000FFF71AFE804608F0FF008DF800004FEA0B
:101C500028208DF801009DF8000080F0C2008DF86A
:101C600002009DF8010080F0C0008DF80300F8B27A
:101C70008DF8040038128DF8050006216846FFF73C
:101C8000FBFD08B90020D2E70120D0E72DE9F0479D
:101C90002848006800F110052E8826480068077A59
:101CA000D6B9042F18D12448007801280FD100217B
:101CB0002248006880B2801C214A42F8101030206F
:101CC0002049088000BF00201B49087003E0072757
:101CD00010201C49088027E0AC88A64201D80420C7
:101CE00000E002200746B44200D93446A0B2A968F9
:101CF00088478046002001F0E1FB8146A2B24946B8
:101D000040460AF02BF9A1B2002009F025F82888F6
:101D1000001B28806888204468803020094908809A
:101D200000020949088000BF024909680F72BDE836
:101D3000F0870000440100203C010020505C00407E
:101D40000060004056010020540100202DE9F041C0
:101D50002848006800F110042688A068C0B1BEB110
:101D6000A588B54200D93546A8B2A168884707467C
:101D70002088401B2080608828446080002001F07B
:101D800071FB8046AAB24146384606F04BFE00BFC2
:101D9000208850B14FF44050174908800021084670
:101DA00008F0DAFF3020154908802088A188884291
:101DB00004DB03200F490968087218E02088002816
:101DC00004DD05200B490968087210E0208870B90D
:101DD000062008490968087200210948006880B295
:101DE000801C084A42F81010302004490880BDE8E1
:101DF000F081000044010020540100205601002021
:101E0000505C0040006000402DE9F84F98480068A1
:101E100045780027BA46062D1AD195480068007803
:101E200010F07F0F13D1924909688878012803D1F7
:101E300090490968CF690AE0022803D18D490968F1
:101E40000F6A04E0032802D18A4909684F6A90E0CA
:101E5000002D60D186480068408800285BD1844806
:101E60000068C088022856D181480068007900289F
:101E700051D17F480068007810F07F0F05D17C4871
:101E80000068808808B97C4F73E079480068007862
:101E900000F07F00012810D175490968487975491B
:101EA00009688A6900219047002862D1704800685B
:101EB000807A00285DD0704F5BE06D480068007844
:101EC00000F07F00022854D169480068407900F092
:101ED0000F0667480068407900F0700964480068A0
:101EE000407910F0800F05D0644850F8260000F0CB
:101EF000300804E0614850F8260000F4405860487B
:101F00000078B04235D9B9F1000F32D1B8F1000FE5
:101F10002FD0594F2DE0082D07D155480068007883
:101F200010F07F0F25D1574F23E00A2D21D15048C3
:101F30000068007800F07F0001281AD14C48006842
:101F4000807AB0B14A480068408890B94848006833
:101F5000007970B946480068C088012809D1444911
:101F600009684879434909688A690021904700B99E
:101F7000454F57B13E480068A0F812A03C480068A1
:101F800087610020B84700240FE0394A1268507872
:101F9000384A1268116988470446032C05D1092084
:101FA000334909680872BDE8F88F31480068008A33
:101FB000A0F57F41FF3904D109202D490968087235
:101FC000F1E7022C03D02A480068008A20B90820D3
:101FD000274909680872E6E725480068007810F08C
:101FE000800F3CD022480068C088009020480068DC
:101FF000008A0099884204D91D490098096808821E
:1020000023E01B480068008A19490968C98888428A
:102010001BDA17480068008A1649096891F82C10E5
:10202000884203DA0020194908700EE01048006861
:10203000008A1049096891F82C1090FBF1F201FB1D
:10204000120010B90120114908700A48006890F880
:102050002C10074800688182FFF718FE06E0032075
:1020600003490968087200030949088000BF9AE71C
:10207000440100204801002089B10008005C0040B4
:10208000950200200DB100085DB100083C01002060
:10209000540100207047002001E0411CC8B21E28F6
:1020A000FBDB704710B502F06DF810BD2DE9F04F65
:1020B000A1B0FEA103C9CDE91F01002500262822F9
:1020C000FC4914A8FEF7B2FAA84602F04BFDFAA2AA
:1020D0000121002002F0D6FE02F0BAFDFFF7E2FF78
:1020E00063E2FA48007800EBC000F9494218002189
:1020F000084602F0C7FE9DF87F009DF87E109DF80F
:102100007D20CDE9002102909DF87C304246F1A16E
:10211000F748FEF71DF9F64A0221002002F0B2FE50
:102120009DF883009DF882109DF88120CDE9002163
:1021300002909DF8803008F10402E6A1EC48FEF719
:1021400007F9EB4A0321002002F09CFE9DB9002410
:102150000EE0E848005DC043E649085501F1800003
:10216000005DC043C1B2E34880300155601C84B2B9
:102170003F2CEEDB40E000243CE0681E14A911F87F
:102180001000DC4901EBC011681E14AA02EB4000EC
:1021900040782044085CC043C1B2681E12F81000A9
:1021A000D44A02EBC012681E14AB03EB4000407827
:1021B00020441154681E14A911F81000401CCD4988
:1021C00001EBC011681E14AA02EB400040782044C5
:1021D000085CC043C1B2681E12F81000401CC54A1A
:1021E00002EBC012681E03EB4000407820441154FB
:1021F000601C84B2082CC0DB02F02AFD4FF4806121
:10220000BD4801F07DF870BB00BF4FF48061BA4853
:1022100001F076F80028F8D004A9404600F0ACFCA4
:1022200028B1B6A200210C2002F02CFE58E7B5A27E
:1022300000210C2002F026FEB448A4490978405C35
:1022400098FBF0F100FB1180C0B21E90002407E063
:102250001E98204404A9085C1FA90855601C84B27C
:10226000082CE3DAF4E7FFE74FF40061A24801F03D
:1022700047F800284CD14FF496700AF04DF94DB94B
:10228000924800780828D1DA90480078401C8F499D
:10229000087025E7012D04D108F580501FFA80F859
:1022A0001EE7022D04D108F580701FFA80F817E7A9
:1022B000032D04D108F110001FFA80F810E7042D57
:1022C00004D108F108001FFA80F809E7681F00EB45
:1022D000D0714910B0EB41010CD100EBD071491025
:1022E0001FAA515C1031CAB200EBD07149101FAB6C
:1022F0005A54F5E6681F00EBD07149101FAA515CD3
:10230000491CCAB200EBD07149101FAB5A54E7E622
:102310002021794800F0F4FFF0BB4FF496700AF0EA
:10232000FBF84DB9694800780028B2DD67480078AD
:10233000401E66490870D3E6012D04D1A8F58050EF
:102340001FFA80F8CCE6022D04D1A8F580701FFAA0
:1023500080F8C5E6032D04D1A8F110001FFA80F81B
:10236000FAE3042D04D1A8F108001FFA80F8F3E382
:10237000681F00EBD0714910B0EB41010DD100EBAB
:10238000D07149101FAA515C1039CAB200EBD0714C
:1023900049101FAB5A54DFE30DE0681F00EBD0710A
:1023A00049101FAA515C491ECAB200EBD0714910F6
:1023B0001FAB5A54D0E310214F4800F0A1FF68B979
:1023C00000BF10214C4800F09BFF0028F9D0002DE1
:1023D00002DD681EC5B2BFE31425BDE34FF4805192
:1023E000454800F08DFF70B900BF4FF4805142485E
:1023F00000F086FF0028F8D0142D02DA681CC5B260
:10240000AAE30025A8E302213B4800F079FF90BB36
:1024100000BF0221384800F073FF0028F9D004A95A
:10242000404600F0A9FB28B134A200210C2002F0A4
:1024300029FD91E3354825490978405C98FBF0F186
:1024400000FB1180C0B21E90002407E01FA8015DB0
:102450001E98204404AA1154601C84B2082CF5DB99
:1024600004A9404600F098FC30B124A200210C20C1
:1024700002F008FD70E305E022A200210C2002F02A
:1024800001FD69E304211C4800F03AFF00287DD1DA
:1024900000BF0421184800F033FF0028F9D01C4881
:1024A0000A49097830F81100184933E05555555557
:1024B00055555555580201083D3D3D3D3D3D3D3D7D
:1024C0003D3D3D3D3D3D3D3D00000000F80000200C
:1024D0008C000020253034583A25303258202530E1
:1024E0003258202530325820253032580000000064
:1024F000340700203403002000100140CAA7B0DCDC
:1025000000000000B3C9B9A600000000DD000020F3
:10251000E6000020F74A1278895C90FBF1F01FFA80
:1025200080F90A22F4A1F94800680AF05DFF00244E
:1025300034E0F749EF4A1278895C614388B204A914
:1025400000F01AFB40B1AFF24C0200210C2002F067
:1025500099FC02F07DFB23E0ED48E6490978425CF6
:10256000EC4B04A9E94800680BF013FA601C6421E5
:10257000484390FBF9F01FFA80FAE7A35246E7A11F
:10258000E848FDF7E5FEE74A002100E00EE00C20F8
:1025900002F078FC02F05CFB601C84B24C45C8DBA6
:1025A00000BFDA4800680AF069FAD5E20821DE487F
:1025B00000F0A6FE00287DD100BF0821DA4800F017
:1025C0009FFE0028F9D0AFF210120121002002F086
:1025D00059FCD6A20221002002F054FCABE2AFF27B
:1025E00028120121002002F04DFC2EB9D4A20321B3
:1025F000002002F047FC1EE0012E05D1D5A20321E8
:10260000002002F03FFC16E0022E05D1D6A20321E5
:10261000002002F037FC0EE0032E05D1D7A20321E3
:10262000002002F02FFC06E0042E04D1D8A20321E2
:10263000002002F027FC02F00BFB4FF48061BA4847
:1026400000F05EFE002871D100BF4FF48061B648F3
:1026500000F056FE0028F8D06EBBD248A549097894
:1026600030F81100AA49A34A1278895C90FBF1F076
:102670001FFA80F9002404E0002004A90855601C1A
:1026800084B2A3489B490978405CA042F4DC002452
:102690002BE09F49974A1278895C614388B204A96C
:1026A00000F07AFB58B1AFF2AC1200210C2002F01E
:1026B000E9FB01E041E21BE002F0CAFA17E0601C0E
:1026C0006421484390FBF9F01FFA80FA92A3524626
:1026D00092A19448FDF73CFE924A00210C2002F0A2
:1026E000D1FB02F0B5FA601C84B24C45D1DB22E28A
:1026F000012E48D1AB487F49097830F81100844950
:102700007C4A1278895C90FBF1F01FFA80F9002472
:1027100004E0FF2004A90855601C84B27C48754978
:102720000978405CA042F4DC002429E0D2E1784939
:10273000704A1278895C614388B204A900F02CFBCE
:1027400040B1AFF2482200210C2002F09BFB02F0C6
:102750007FFA17E0601C6421484390FBF9F01FFAF0
:1027600080FA6DA352466DA16E48FDF7F1FD6D4AEA
:1027700000210C2002F086FB02F06AFA601C84B291
:102780004C45D4DBD7E1022E5ED186485949097801
:1027900030F811005E49574A1278895C90FBF1F0DD
:1027A0001FFA80F900244CE0002718E05849514AEC
:1027B0001278895C01FB04F000EBD07107EB61013A
:1027C0001FFA81FB4FEA2B2004A901F81700012111
:1027D00001EB470104AA02F801B0781CC7B24C49CA
:1027E000444A1278885C00EBD071B7EB610FDDDBF7
:1027F0004749404A1278895C614388B204A900F0D5
:10280000CBFA40B1AFF20C3200210C2002F03AFBBF
:1028100002F01EFA17E0601C6421484390FBF9F0B7
:102820001FFA80FA3CA352463CA13E48FDF790FDBA
:102830003C4A00210C2002F025FB02F009FA601C42
:1028400084B24C45B0DB76E1032E51D1554829497D
:10285000097830F811002E49264A1278895C90FBDD
:10286000F1F01FFA80F9012223A1284800680AF03C
:10287000BBFD40B1AFF27C3200210C2002F002FB24
:1028800002F0E6F957E10024A6E021481949097849
:10289000425C204B04A91D4800680AF055FE1C4804
:1028A00014490978405C1B49096888420DD91948C8
:1028B000077804E0FF2004A9C855781CC7B2144863
:1028C0000C490978405CB842F4DC1149094A127895
:1028D000895C614388B204A900F05EFA48B1AFF2A6
:1028E000E43200210C2002F0CDFA02F0B1F976E0DA
:1028F0007BE059E0F8000020303A2F3234437878FA
:102900005F52572F72642E62696E00002001002012
:10291000DD0000203401002025000000253364255F
:10292000730000003407002000100140D1A1D4F151
:10293000D0B4C8EBC4A3CABDA3BA202000000000D5
:10294000D0B4C8EB30303030B8F1CABD20202020E0
:1029500000000000D0B4C8EB46464646B8F1CABDF8
:102960002020202000000000D0B4C8EB30313233EA
:10297000B8F1CABD2020202000000000D0B4C8EB70
:1029800072642E62696ECEC4BCFE2020000000007E
:10299000D0B4C8EB77722E62696ECEC4BCFE202024
:1029A00000000000E6000020601C6421484390FB0A
:1029B000F9F01FFA80FAAFF2A0035246AFF2A40179
:1029C0006648FDF7C5FC654A00210C2002F05AFA62
:1029D00002F03EF9601C84B24C45FFF656AF00BFD2
:1029E0005F4800680AF04AF8A5E0042E1CD15D4853
:1029F0005D49097830F811105C485B4A1278805CB8
:102A000091FBF0F01FFA80F90122AFF21411544843
:102A100000680AF0E9FC40B1AFF2205200210C201E
:102A200002F030FA02F014F985E000244AE04F4841
:102A30004D490978425C4E4B04A9494800680AF0A8
:102A400083FD4A4848490978405C494909688842F9
:102A50000DD94748077804E0FF2004A9C855781C21
:102A6000C7B2424840490978405CB842F4DC3F496B
:102A70003D4A1278895C614388B204A900F08CF960
:102A800040B1AFF2885200210C2002F0FBF902F0B5
:102A9000DFF819E0601C6421484390FBF9F01FFA4D
:102AA00080FAAFF28C135246AFF290112B48FDF72B
:102AB0004FFC2A4A00210C2002F0E4F902F0C8F889
:102AC000601C84B24C45B2DB00BF2548006809F0A9
:102AD000D5FF30E04FF40061264800F011FC60B9EA
:102AE00000BF4FF40061234800F00AFC0028F8D032
:102AF000002E20DD701EC6B21DE020211D4800F012
:102B0000FFFB58B900BF20211A4800F0F9FB00284C
:102B1000F9D0042E0FDA701CC6B20CE00121154862
:102B200000F0EEFB38B900BF0121124800F0E8FBCD
:102B30000028F9D000E052E50EE001210D4800F038
:102B4000DFFB48B900BF01210A4800F0D9FB00288B
:102B5000F9D021B0BDE8F08FFFF7C3BA34070020E9
:102B600020010020E6000020F8000020DD00002009
:102B700034010020001001402DE9F04104460E46CA
:102B8000344835490978405C401E4FF6FF71081AF9
:102B9000044001F0CFFB3048007804280CDDA02071
:102BA00001F08AFB01F01CFC10B10120BDE8F081AE
:102BB000201201F081FB06E02112A02202EB41016C
:102BC000C8B201F079FB01F00BFC08B10120EDE780
:102BD0002746E11704EB11610912A4EB0121C8B2E9
:102BE00001F06AFB01F0FCFB08B10120DEE701F017
:102BF000A1FB19480078042803DDA12001F05CFB4B
:102C000006E02112A12202EB4101C8B201F054FBFF
:102C100001F0E6FB08B10120C8E7002505E001202E
:102C200001F0FCFA7055681CC5B20A480A490978D7
:102C3000405C401EA842F2DC002001F0EFFA05499A
:102C4000054A1278895C491E705401F09BFB0020F4
:102C5000ACE70000DD000020F800002070B504465D
:102C60000D4601F067FB2848007804280BDDA02002
:102C700001F022FB01F0B4FB08B1012070BD20126D
:102C800001F01AFB0AE02646E11704EB1161091274
:102C9000A02202EB4101C8B201F00EFB01F0A0FB43
:102CA00008B10120EAE72646E11704EB1161091299
:102CB000A4EB0121C8B201F0FFFA01F091FB08B1C9
:102CC0000120DBE701F036FB0F480078042803DD24
:102CD000A12001F0F1FA06E02112A12202EB41014C
:102CE000C8B201F0E9FA01F07BFB08B10120C5E7A9
:102CF000012001F093FA2870002001F08FFA68702B
:102D000001F040FB0020B9E7F800002070B5044650
:102D10000E4601F00FFB1F48007804280BDDA020B1
:102D200001F0CAFA01F05CFB08B1012070BD20126D
:102D300001F0C2FA0AE02546E11704EB116109121D
:102D4000A02202EB4101C8B201F0B6FA01F048FB43
:102D500008B10120EAE72546E11704EB11610912E9
:102D6000A4EB0121C8B201F0A7FA01F039FB08B1C8
:102D70000120DBE7304601F09FFA01F031FB08B19A
:102D80000120D3E701F0FEFA052009F0C5FB002081
:102D9000CCE70000F80000202DE9F04104460F4682
:102DA000274828490978405C401E4FF6FF71081AF1
:102DB000044001F0BFFA2348007804280CDDA0206D
:102DC00001F07AFA01F00CFB10B10120BDE8F081AE
:102DD000201201F071FA06E02112A02202EB41015B
:102DE000C8B201F069FA01F0FBFA08B10120EDE781
:102DF0002646E11704EB11610912A4EB0121C8B2C8
:102E000001F05AFA01F0ECFA08B10120DEE70025E2
:102E100009E0785D01F050FA01F0E2FA08B1012012
:102E2000D4E7681CC5B2064806490978405CA84248
:102E3000EFDC01F0A7FA052009F06EFB0020C5E7E2
:102E4000DD000020F800002070B504460D4601F0BA
:102E500071FA2348007804280BDDA02001F02CFA39
:102E600001F0BEFA08B1012070BD201201F024FA71
:102E70000AE02646E11704EB11610912A02202EBD9
:102E80004101C8B201F018FA01F0AAFA08B1012014
:102E9000EAE72646E11704EB11610912A4EB0121D0
:102EA000C8B201F009FA01F09BFA08B10120DBE792
:102EB000287801F001FA01F093FA08B10120D3E774
:102EC000687801F0F9F901F08BFA08B10120CBE73D
:102ED00001F058FA052009F01FFB0020C4E70000AC
:102EE000F800002010B504F08DFF10BD10B504F0FF
:102EF000DDFF10BD01490860704700001404014067
:102F0000002123498279002A3AD00A4612680368D0
:102F10009A430B461A600A1D126803689A430B1DF8
:102F20001A60027911440A6803681A430A60184A51
:102F30000832126803689A43154B08331A601A1D49
:102F4000126803689A43124B0C331A604279102AB4
:102F50000ED11A1F126803681A430D4B08331A600A
:102F60001A1D126803681A43094B0C331A600DE0EE
:102F70000749427911440A6803681A430A6005E068
:102F8000027911440A6803689A430A607047000096
:102F90000004014003200149086070472403002019
:102FA00030B5044604254FF4302000F0C5F805463E
:102FB000042D17D10C48006940F002000A4908614D
:102FC00008464461006940F0400008614FF4302039
:102FD00000F0B2F805460448006941F6FD7108406A
:102FE00001490861284630BD0020024004200B49F9
:102FF000C96811F0010F01D001200EE00749C9682E
:1030000011F0040F01D0022007E00449C96811F053
:10301000100F01D0032000E0042070470020024080
:103020000348006940F080000149086170470000D2
:103030000020024070B504460D460426F00200F060
:103040007BF80646042E11D10948006940F00100C2
:10305000074908612580F00200F06EF80646044832
:10306000006941F6FE71084001490861304670BDB3
:103070000020024030B5054604244FF4302000F013
:103080005BF80446042C41D121482249886022483B
:1030900088600846006940F0200008610846006921
:1030A00040F0400008614FF4302000F045F804463D
:1030B000042C22D11748006941F6DF7108401549F8
:1030C00008610846006940F0100008611DB1002049
:1030D0001249088002E0A520104908804FF43020F2
:1030E00000F02AF80446052C10D00A48006941F681
:1030F000EF7108400749086108E0052C06D0054833
:10310000006941F6DF71084002490861204630BD80
:103110002301674500200240AB89EFCD00F8FF1F77
:1031200002480349486003484860704723016745E7
:1031300000200240AB89EFCD00B502460423FFF723
:1031400055FF034603E0FFF751FF0346521E012BD4
:1031500001D1002AF7D102B90523184600BD2DE997
:10316000F04102460025002600200023002400270D
:1031700091F803C00CF00F0591F803C01CF0100F7C
:1031800003D091F802C04CEA050591F800C0BCF1EB
:10319000000F31D0146800202BE04FF0010C0CFA26
:1031A00000F3B1F800C00CEA03069E4220D1830070
:1031B0004FF00F0C0CFA03F7BC4305FA03FC4CEA82
:1031C000040491F803C0BCF1280F06D14FF0010CA4
:1031D0000CFA00FCC2F814C00AE091F803C0BCF17C
:1031E000480F05D14FF0010C0CFA00FCC2F810C0DA
:1031F000401C0828D1D31460B1F800C0BCF1FF0F07
:1032000034DD546800202EE000F1080C4FF0010876
:1032100008FA0CF3B1F800C00CEA03069E4221D173
:1032200083004FF00F0C0CFA03F7BC4305FA03FCC4
:103230004CEA040491F803C0BCF1280F05D100F159
:10324000080C08FA0CF8C2F8148091F803C0BCF11D
:10325000480F07D100F1080C4FF0010808FA0CF8EC
:10326000C2F81080401C0828CED35460BDE8F0811D
:10327000F0B50A46002300240021002500F0004696
:10328000B6F1004F02D11D4EF16901E01B4E71688D
:10329000C0F3034583B200F44016B6F5401F08D1D1
:1032A00021F07061154E766826F07066134F7E60CF
:1032B00012E000F48016B6F5801F06D1032606FA48
:1032C00005F4A14341F0706106E0460D360103FAB2
:1032D00006F6B14341F0706122B1460D360103FAA2
:1032E00006F6314300F00046B6F1004F02D1034E1E
:1032F000F16101E0014E7160F0BD0000000001408D
:103300000246002093680B4201D0012000E000201B
:10331000704741617047000008B50121052005F0A4
:1033200063FC01211148FFF7A3FF4FF40040ADF803
:10333000000003208DF8020010208DF8030069467C
:103340000B48FFF70CFF41F63F40ADF800000320AB
:103350008DF8020004208DF8030069460448FFF749
:10336000FEFE01200349086008BD00000002300095
:1033700000080140BC012142016170470AB10161AE
:1033800000E04161704700002DE9F05F06460D4600
:1033900000243078802801DA102700E0202730460A
:1033A000FEF7A8F9804610212D48FFF7B2FF0A204A
:1033B00009F0E4F8032006F059F8C8F3074A50462C
:1033C00006F054F8C8F3072A504606F04FF808F004
:1033D000FF0A504606F04AF8002408E0FF2006F0F5
:1033E00045F8834605F090FC2855601CC4B2BC42E9
:1033F000F4DB10211A48FFF7BFFF30783A2802DAD1
:1034000030782F280BDC30785B2802DA30784028BF
:1034100005DC30787B281FDA307860281CDD00243A
:1034200018E004F10800285CC11004F108002954D8
:10343000285D00F007094FEA491904F10800285CEB
:103440004844C1B204F108002954285DC010285531
:10345000601CC4B2082CE4DB3846BDE8F09F0000D5
:103460000008014001460548006880B200EBC10039
:10347000001D034A32F8100080B27047505C0040D3
:103480000060004001460648006880B200EBC100C1
:10349000801D044A32F81000C0F309007047000094
:1034A000505C0040006000400146034850F8210095
:1034B00000F4405070470000005C004001460548A1
:1034C000006880B200EBC100034A32F8100080B2FD
:1034D00070470000505C0040006000402DE9F04162
:1034E00086B001F03FFBC3A20021084601F0CAFCF0
:1034F000C5A20121002001F0C5FCFEF76FFB0028EA
:103500005CD02020C549087048708870CE20C870F3
:10351000B4200871D7204871A2208871B220C871E8
:10352000E1200872B0204872E6208872B120C8728B
:10353000BE200873202048738873C8730020087465
:103540000A46022101F09EFC2020B4490870B220F6
:103550004870BB208870D620C870A7200871B3209F
:103560004871D6208871B420C871CB200872B92068
:103570004872A6208872C420C872DC200873A32079
:103580004873A12088732020C873002008740A465D
:10359000032101F077FC01F05BFB00BF0121A04893
:1035A000FFF7AEFE0028F9D100BF01219C48FFF7CC
:1035B000A7FE0028F9D006B0BDE8F08199A203214A
:1035C000002001F05FFC01F043FB12E14FF4806149
:1035D0009348FFF795FE002870D100BF4FF480613B
:1035E0008F48FFF78DFE0028F8D0002211464FF4D7
:1035F000165008F095F990A20221002001F042FC3B
:103600008DA20321002001F03DFC01F021FB0020F0
:103610008E490880FA21642008F00EFA38B18CA295
:103620000321002001F02EFC01F012FBD0E0002568
:1036300025E08C48415D0246681D105C81421CD12A
:1036400000240CE028198749085C03A90855681D67
:1036500020448449085C01A90855601C84B2052CEB
:10366000F0DB052103A8FEF707F90646052101A8AE
:10367000FEF702F9B04200D103E0681C85B25F2D6D
:10368000D7DB00BF5F2D45D1002211464FF4164015
:1036900008F046F94FF4FA7008F03EFF00206B493D
:1036A0000880FA21642008F0C7F940B16EA2032116
:1036B000002001F0E7FB01F0CBFA89E08CE0002567
:1036C00025E06848415D0246681D105C81421CD1BE
:1036D00000240CE028196349085C03A90855681DFB
:1036E00020446049085C01A90855601C84B2052C7F
:1036F000F0DB052103A8FEF7BFF80646052101A867
:10370000FEF7BAF8B04200D103E0681C85B25F2D25
:10371000D7DB00BF5F2D53DA032103A8FEF7ACF817
:103720000646F0B28DF8140030128DF81500002412
:1037300009E09DF8140060409DF80F10884200D108
:1037400003E0601C84B2FF2CF3DD00BFFF2C01DC22
:10375000E7B207E049A20321002001F093FB01F04A
:1037600077FA35E0002409E09DF8150060409DF8E7
:103770001010884200D103E0601C84B2FF2CF3DDFE
:1037800000BFFF2C14DC04F0FF0843463A4640A17A
:103790002248FCF7DDFD214A0221002001F072FBE6
:1037A00041A20321002001F06DFB01F051FA0EE06F
:1037B00032A20321002001F065FB01F049FA06E086
:1037C0002EA20321002001F05DFB01F041FA00BFB1
:1037D000012008F0D3FE0CE001211148FFF790FD15
:1037E00038B900BF01210E48FFF78AFD0028F9D043
:1037F000E1E6EBE62020BDD8C8A1CDE2D5D0D0AD22
:10380000D2E92020000000003D3D3D3D3D3D3D3DD5
:103810003D3D3D3D3D3D3D3D000000003407002065
:103820000010014020202020202020454E544552E9
:10383000BFAACABC00000000202020202020202099
:1038400020202020202020202000000086000020B2
:10385000CDA8D1B6CEB4C1ACBDD33020202020201D
:103860000000000054070020CDA8D1B6CEB4C1ACF2
:10387000BDD3312020202020000000002020202067
:10388000B6C1C8A1CAA7B0DC2020202000000000DB
:10389000D0ADD2E9C2EBA3BA253032582025303260
:1038A000582020200000000020202020B6C1C8A100
:1038B000B3C9B9A620202020000000002DE9F04760
:1038C00086B000274FF001094FF0040801F04AF9D3
:1038D000994A0021084601F0D5FA1F242402FF343A
:1038E0002402F7342402E834002505E0605DC0437B
:1038F00003A94855681CC5B20C2DF7DB0C2103A8A1
:10390000FDF7BAFF06469DF80F0080F0A50033468C
:103910008A4A8BA100908D48FCF71AFD8B4A012141
:10392000002001F0AFFAD02088490870C420487008
:10393000E2208870F920C870CD200871A820487155
:10394000A3208871BA20C871582008725920487283
:10395000542088723220C87238200873352048738A
:10396000382088732020C873002008740A46032179
:1039700001F088FADEE03B46754A76A17348FCF711
:10398000E7FC724A0221002001F07CFA4FF48061CA
:103990007248FFF7B5FC00286DD100BF4FF480617D
:1039A0006E48FFF7ADFC0028F8D0F0B28DF80400A7
:1039B00030128DF8050086F0C200C0B28DF8060006
:1039C000C02080EA26208DF80700042101A8FDF719
:1039D00053FF8246BA4543D1614A0321002001F0DA
:1039E00051FAFFF79DFB08242402E41C2402F8345A
:1039F000240200BF2046FFF7D3FA002514E001207F
:103A000000EB450003A90E5C4FF6FF7000EA0626A6
:103A100003A810F81500304486B204EB4500314687
:103A2000FFF708FB681CC5B2062DE8DB394604F138
:103A30000C00FFF7FFFA002140F6F870FCF71FFFBB
:103A40000120FFF717FBFFF7EBFA01F001F9022065
:103A500008F088FD43484449086006B0BDE8F08797
:103A6000424A0321002001F00DFA01F0F1F8022092
:103A700008F078FDF1E74FF400613848FFF740FCAB
:103A800038B94FF4967008F047FD07EB090087B28C
:103A900047E020213148FFF733FC38B94FF49670E6
:103AA00008F03AFDA7EB090087B23AE010212B4855
:103AB000FFF726FC88B94FF4967008F02DFDB8F199
:103AC000000F2EDD09EB89004FF6FF7101EA400976
:103AD000A8F101001FFA80F823E04FF480511F483D
:103AE000FFF70EFC80B94FF4967008F015FDB8F1A1
:103AF000040F16DA0A2099FBF0F01FFA80F908F19A
:103B000001001FFA80F80CE001211448FFF7F8FBD0
:103B100038B900BF01211148FFF7F2FB0028F9D0A6
:103B20009BE708F10801C8B20022022101F0EAF87F
:103B300001F08EF81FE7000021000020180000208F
:103B400025732535642530336400000034070020D8
:103B5000320000202573253564000000001001406C
:103B60003B0000200400FA050CED00E04C000020B2
:103B7000014629B90120034A1268108200207047CB
:103B80000148FCE7440100209402002010B5E6B093
:103B900000244FF4CC7272496846FCF747FD71A2CD
:103BA0000021084601F06EF973A20121002001F006
:103BB00069F9FEF713F800285BD0202073490870DC
:103BC00048708870CE20C870B4200871D720487122
:103BD000A2208871B220C871E1200872B02048721A
:103BE000E6208872B120C872BE2008732020487376
:103BF0008873C873002008740A46022101F042F954
:103C0000202062490870B2204870BB208870D620FE
:103C1000C870A7200871B3204871D6208871B420DD
:103C2000C871CB200872B9204872A6208872C420BF
:103C3000C872DC200873A3204873A1208873202059
:103C4000C873002008740A46032101F01BF900F034
:103C5000FFFF00BF01214E48FFF752FB0028F9D1BA
:103C600000BF01214A48FFF74BFB0028F9D066B09E
:103C700010BDFEF717FA71E03AA20021084601F0E4
:103C800001F93DA20121002001F0FCF841A202212E
:103C9000002001F0F7F8C4EB041069464218022135
:103CA000084601F0EFF81A2C09DA601CC0EB00108E
:103CB000694642180321022001F0E4F804E036A22C
:103CC0000321002001F0DEF838A20321002001F0DA
:103CD000D9F800F0BDFF4FF480612D48FFF710FBCD
:103CE00058B900BF4FF480612948FFF709FB00284D
:103CF000F8D020460AF052FD30E04FF4006124482D
:103D0000FFF7FEFA60B900BF4FF400612048FFF7EB
:103D1000F7FA0028F8D0002C20DD601EC4B21DE0A8
:103D200020211B48FFF7ECFA58B900BF20211848A2
:103D3000FFF7E6FA0028F9D01A2C0FDA601CC4B29B
:103D40000CE001211248FFF7DBFA38B900BF01216E
:103D50000F48FFF7D5FA0028F9D088E78CE7000074
:103D60006007010820202020C3DCC2EBC6C6BDE2EC
:103D700020202020000000003D3D3D3D3D3D3D3DDB
:103D80003D3D3D3D3D3D3D3D0000000034070020F0
:103D9000001001402D3E0000202020202020202067
:103DA00020202020202020200000000020200000D3
:103DB00070B50A480468001D0568001D0668344493
:103DC00054B108220649204600F0ACFE0422044902
:103DD0001031284600F0A6FE70BD0000E8F7FF1F76
:103DE0003A02002002460023002126E01807030EB5
:103DF000505C292807DD505C3A2804DA505C3038E2
:103E00001844C3B217E0505C402807DD505C4728D7
:103E100004DA505C37381844C3B20CE0505C6028B8
:103E200007DD505C672804DA505C57381844C3B289
:103E300001E000207047481CC1B20229D6DB1846B9
:103E4000F8E700BF00BF704710B5002010490860B8
:103E50001048006820F070400E490860084600686D
:103E600040F0405008604FF000000B49C1F89C0141
:103E70004FF0020008F082FB0120054908604FF076
:103E8000020008F07BFB00200349C1F8980110BD37
:103E900098812142000C01400080214208B5012197
:103EA000082004F0A1FED020ADF8000010208DF80D
:103EB000030003208DF8020069460648FFF74FF91A
:103EC000C0210448FFF758FA10210248FFF721FAF1
:103ED00008BD0000000C014010B50020104908602A
:103EE0001048006820F070400E49086008460068DD
:103EF00040F0405008604FF001000B49C1F89C01B0
:103F00004FF0020008F03AFB0120054908604FF02D
:103F1000020008F033FB00200349C1F8980110BDEE
:103F200098812142000C01400080214270B5054675
:103F300000241748006820F07040154908600846C2
:103F4000006840F000400860002616E0002011499B
:103F500008604FF0020008F011FB01200E49C1F883
:103F600098016006040E0D48006808B1601CC4B2D8
:103F7000012008F003FB701CC6B2082EE6DB15B961
:103F8000FFF7AAFF01E0FFF75FFF204670BD0000CA
:103F9000000C014098812142008021421C81214275
:103FA00070B504461948006820F070401749086051
:103FB0000846006840F0405008600020144908603E
:103FC000054620E0E00903D001201249086002E024
:103FD0000020104908604FEA44604FEA10644FF037
:103FE000020008F0CBFA0120094908604FF00200F6
:103FF00008F0C4FA00200849C1F89801022008F02E
:10400000BDFA681CC5B2082DDCDB70BD000C014098
:10401000988121429C8121420080214210B51048A4
:10402000006820F070400E4908600846006840F0C3
:104030004050086001200B4908600B49C1F8980105
:104040004FF0040008F09AFA0020064908604FF08B
:10405000040008F093FA00200349C1F8980110BD4C
:10406000000C01409C8121420080214210B5104883
:10407000006820F070400E4908600846006840F073
:104080004050086000200B4908600B49C1F89C01B2
:104090004FF0040008F072FA012006490860064952
:1040A000C1F89C014FF0040008F068FA10BD000050
:1040B000000C0140988121420080214210B500246B
:1040C0001348006820F070401149086008460068F5
:1040D00040F00040086001200E49086008F04EFAE8
:1040E00001200D49C1F8980108F048FA07E0601C6A
:1040F000C4B2FA2C03DDFFF7B9FF012010BD074859
:1041000000680028F3D10649086000BFF6E7000008
:10411000000C01409C812142008021421C812142EF
:104120009881214210B500201349086013480068A7
:1041300020F47020114908600846006840F44030BF
:1041400008604FF0010008F019FA00200C49C1F88E
:10415000B001032008F012FA0120074908604FF06F
:10416000020008F00BFA00200549C1F8AC0101205B
:1041700008F004FA10BD0000AC012142040801401F
:104180000000214208B50121042004F02DFD4FF468
:104190001840ADF8000010208DF8030003208DF8C2
:1041A000020069460448FEF7DAFF4FF4184102485E
:1041B000FFF7E2F808BD00000008014010B500203C
:1041C000134908601348006820F470201149086002
:1041D0000846006840F4403008604FF0010008F0E5
:1041E000CDF901200C49C1F8B001032008F0C6F94F
:1041F0000120074908604FF0040008F0BFF90020D3
:104200000549C1F8AC01012008F0B8F910BD000063
:10421000AC012142040801400000214270B505466E
:10422000002401201F4908604FF0040008F0A6F99F
:104230001D48006820F470201B490860084600688B
:1042400040F40020086018480830006840F48050AE
:10425000154908310860002619E00020134908605C
:104260004FF0080008F08AF901201149C1F8AC01AB
:10427000052008F083F96006040E0E48006808B1B6
:10428000601CC4B2052008F079F9701CC6B2082E73
:10429000E3DB15B9FFF792FF01E0FFF743FF20468C
:1042A00070BD0000BC01214204080140AC01214264
:1042B000000021423001214270B5044619480068CF
:1042C00020F47020174908600846006840F4403028
:1042D0000860002014490860054620E0052008F029
:1042E0004DF9E00903D001201049086002E00020E8
:1042F0000E4908604FEA44604FEA10644FF0040032
:1043000008F03CF90120084908604FF0040008F06B
:1043100035F900200649C1F8AC01681CC5B2082D6A
:10432000DCDB70BD04080140AC012142B001214238
:104330000000214210B51048006820F470200E499A
:1043400008600846006840F44030086001200B49CE
:1043500008600B49C1F8AC014FF0050008F00EF9F8
:104360000020064908604FF0050008F007F900201A
:104370000349C1F8AC0110BD04080140B00121425D
:104380000000214210B51348006820F47020114944
:1043900008600846006840F44030086000200E497C
:1043A00008604FF0010008F0E9F800200B49C1F85F
:1043B000B001042008F0E2F801200749086008F085
:1043C000DDF801200549C1F8B001042008F0D6F855
:1043D00010BD000004080140AC0121420000214250
:1043E00010B500241D48006820F470201B490860A7
:1043F0000846006840F4002008601848083000684B
:1044000040F48050154908310860012014490860C3
:104410001449C1F8B0014FF0080008F0AFF80120CE
:10442000114908604FF0080008F0A8F80AE0601C85
:10443000C4B2FA2C03DDFFF7A5FF012010BD022056
:1044400008F09CF8094800680028F0D10649086087
:104450004FF0040008F092F80020EFE70408014054
:10446000BC01214200002142AC0121423001214225
:1044700010B502460020002113E000EB80034FF648
:10448000FF7404EA4300535C292B07DD535C3A2B8D
:1044900004DA535C303B034498B200E000204B1C2C
:1044A000D9B20529E9DB10BD002007F0E9FC4FF483
:1044B0002F7008F031F8012007F0E2FC4FF4007192
:1044C00000200AF04FF913490860402100200AF04B
:1044D00049F91149086007F029FC06F00DFD07F0C5
:1044E00007FC0EA20021084600F0CCFC10A201211E
:1044F000002000F0C7FC13A20221002000F0C2FC43
:1045000015A20321002000F0BDFC00F0A1FB00BFBC
:10451000FEE70000A001002028020020202020202B
:1045200055C5CCC4A3CABD20202020200000000017
:104530003D3D3D3D3D3D3D3D3D3D3D3D3D3D3D3DAB
:1045400000000000202020205520C5CCC4A3CABDF7
:10455000202020200000000020202020B6CFB5E73A
:10456000CDCBB3F620202020000000002DE9F04143
:1045700007464FF000080026B3A20221002000F0F9
:1045800081FCB1A20321002000F07CFC00F060FB64
:1045900001223946B148006808F026FF04463CB1C4
:1045A000AFA20221002000F06DFC00F051FB37E1CA
:1045B0000BF0C6FB04463CB1AEA20221002000F085
:1045C00061FC00F045FB2BE10BF096FA04463CB190
:1045D000ACA20221002000F055FC00F039FB1FE1E5
:1045E0001022AD49AD480BF0BDFA0446012C48D16C
:1045F000ABA20221002000F045FCADA20321002067
:1046000000F040FC00F024FB39E04FF48061AC483E
:10461000FEF776FE002820D100BF4FF48061A84845
:10462000FEF76EFE0028F8D00BF052FB50B1A5A2A9
:104630000221002000F026FC83A20321002000F0CC
:1046400021FCEDE080A20221002000F01BFC7EA2F4
:104650000321002000F016FC12E001219848FEF72B
:104660004FFE60B900BF01219548FEF749FE0028C2
:10467000F9D09948006808F001FABDE8F081C4E774
:1046800008E03CB195A20221002000F0FBFB00F005
:10469000DFFAC5E00BF00EFA04463CB193A202210A
:1046A000002000F0EFFB00F0D3FAB9E000BF934B1D
:1046B000802293496948006808F046FF38B191A20A
:1046C0000221002000F0DEFB00F0C2FAA8E08B48D7
:1046D000006800B953E08948008882B206F10061A1
:1046E00087480BF04BFB38B18BA20221002000F071
:1046F000C9FB00F0ADFA93E08048008882B206F171
:10470000006166480BF02EFA38B188A20221002021
:1047100000F0B8FB00F09CFA82E000250FE078483A
:10472000405D5E49495D884207D085A20221002094
:1047300000F0A8FB00F08CFA72E0681CC5B26F486C
:1047400000688542EBD36D480068064464207043DE
:1047500042490968C968B0FBF1F000F0FF08424621
:104760007CA18148FBF7F4FD7F4A0221002000F084
:1047700089FB00F06DFA61480068802897D000BF7F
:104780007AA20221002000F07DFB7DA203210020FF
:1047900000F078FB00F05CFA3DE04FF4806148489F
:1047A000FEF7AEFD00BB00BF4FF480614448FEF74A
:1047B000A7FD0028F8D00BF073FA50B175A20221C2
:1047C000002000F05FFB20A20321002000F05AFB34
:1047D00026E075A20221002000F054FB1AA203215A
:1047E000002000F04FFB17E001213548FEF788FD5F
:1047F00088B900BF01213248FEF782FD0028F9D0B8
:104800006EA20221002000F03DFB0FA20321002038
:1048100000F038FB00E0C0E700BF00F019FA00BF6D
:104820000E48006808F02AF900BF01212448FEF76D
:1048300067FD0028F9D100BF01212148FEF760FD86
:104840000028F9D000BF18E72020202020202020B9
:104850002020202020202020000000002C0100200B
:10486000B3CCD0F2CEC4BCFEB4F2BFAACAA7B0DCAF
:1048700000000000C4BFB1EAC1ACBDD3CAA7B0DC20
:1048800021202000BBF1C8A1D6B8C1EEB4FAC2EB1A
:10489000CAA7B0DC0000000000F8FF1F64910020F0
:1048A000D0BEC6ACB6C1D0B4B1A3BBA421202000F9
:1048B000CAC7B7F1BDE2B3FD202020202020200090
:1048C00000100140BDE2B3FDB6C1B1A3BBA4CAA7AD
:1048D000B0DCA3A10000000024010020D0BEC6ACC3
:1048E000CAD4B6C1CAA7B0DC21202000D0BEC6AC55
:1048F000B2C1B3FDCAA7B0DC2120200034010020E2
:10490000E4900020B6C1C8A1B3CCD0F2CEC4BCFEA6
:10491000CAA7B0DC00000000D0B4C8EBCAA7B0DC66
:10492000202020202020202000000000B6C1C8A1A7
:10493000CAA7B0DC2020202020202020000000007A
:10494000D0A3D1E9CAA7B0DC20202020202020203D
:1049500000000000CFC2D4D8BDF8B6C8A3BA253332
:10496000642525202000000034070020CFC2D4D8C1
:10497000CDEAB3C9A3A12020202020200000000000
:10498000CAC7B7F1BDF8D0D0B6C1C8A1B1A3BBA406
:1049900000000000C9E8D6C3B6C1B1A3BBA4CAA732
:1049A000B0DCA3A100000000C9E8D6C3B6C1B1A322
:1049B000BBA4B3C9B9A6A3A100000000CEB4C9E846
:1049C000D6C3B6C1B1A3BBA4A3A1202000000000A0
:1049D00070B50546084807F07FF9C4B2074800885B
:1049E000FF2808DA06480549098844540348008826
:1049F000401C0249088070BD00380140860000203C
:104A00005407002070B50546164807F065F9C4B292
:104A10001548008838B9022C23D1144804700120AD
:104A2000114908801DE010480088FF2819DC032C7C
:104A30000ED10E480C49098844540B48008840F4B4
:104A400080700949088008460088401C088008E0FA
:104A5000064805490988445403480088401C024917
:104A6000088070BD003801408600002054070020F7
:104A700070B505460C4807F02FF9C4B20B48008802
:104A800038B9AC420ED10A480470012007490880A9
:104A900008E0074805490988445404480088401C38
:104AA0000249088070BD00000038014086000020E7
:104AB0005407002010B518480068047A022C01D071
:104AC000042C05D1FDF7E2F813480068047A1CE0D5
:104AD000062C19D110480068407805280ED10E48E0
:104AE0000068007810F07F0F08D10B490968C8787A
:104AF00006F094F809490968086A80470849096876
:104B000088688047082400E00824034909680C727B
:104B100004F00AF810BD00004401002050010020FC
:104B20004801002030B50B46002100BF16E00A24E2
:104B3000B4EB107F05D9302404EB107403F8114056
:104B400005E0412404EB10740A3C03F81140000115
:104B500000254C00641C1D554C1CE1B29142E6DB63
:104B600030BD000000200CE0002106E00022064BD2
:104B700003EBC0135A544A1CD1B28029F6DB421C05
:104B8000D0B20828F0DB70473403002008B50121BB
:104B90003C2004F029F84FF48070ADF800000320A9
:104BA0008DF8020014208DF8030069462548FEF7B1
:104BB000D6FA4FF47F40ADF8000003208DF80200D4
:104BC00014208DF8030069461F48FEF7C8FA032039
:104BD000ADF800008DF8020010208DF80300694642
:104BE0001948FEF7BCFA4FF47070ADF800000320CE
:104BF0008DF8020014208DF8030069461348FEF773
:104C0000AEFA0A2007F088FC012211020E48FEF7D6
:104C1000B5FB012251020C48FEF7B0FB0A2007F059
:104C20007BFC3E2000F058F9BF2000F055F9C02071
:104C300000F052F97F2000F04FF93F2000F04CF9CE
:104C400008BD000000080140000C014000100140B8
:104C500070B500224FF480712848FEF78FFB0122C7
:104C600051022648FEF78AFB002417E0C4F1BF0179
:104C7000C8B200F031F900250CE0C5F17F01C8B2DF
:104C800000F02AF91E4901EBC411485D00F064F9F7
:104C9000681CC5B2402DF0DB601CC4B2082CE5DBFB
:104CA00000224FF400711548FEF768FB0122110243
:104CB0001248FEF763FB00241CE0C4F1BF01C8B238
:104CC00000F00AF9402000F007F900250EE0C5F1D8
:104CD0007F01C8B200F000F9094901EBC41205F1E7
:104CE0004001505C00F038F9681CC5B2402DEEDB85
:104CF000601CC4B2082CE0DB70BD0000000C014059
:104D000034030020F0B515460446C61700EB1676AE
:104D10003611A0EB0616F0B20C46CE1701EB9676D4
:104D2000B610A1EB8606F1B235BB002221E0264E7B
:104D300006EB012402EBC006A35DDC43224F07EB28
:104D4000012602EBC007F455012404EB41041E4E7A
:104D500006EBC41402EBC006A35DDC43012606EBA0
:104D60004106194F07EBC61602EBC007F455541C59
:104D7000E2B2082ADBDB25E0002221E0124E06EB3E
:104D8000012402EBC006A35DDC430F4F07EB0126B5
:104D900002EBC007F455012404EB41040A4E06EB74
:104DA000C41402EBC006A35DDC43012606EB4106FA
:104DB000054F07EBC61602EBC007F455541CE2B2D0
:104DC000102ADBDBF0BD00003403002070B5134671
:104DD0000446C51700EB15752D11A0EB0515E8B2BB
:104DE0000C46CD1701EB9575AD10A1EB8505E9B229
:104DF000002214E09C5C0B4E06EB012502EBC00682
:104E0000AC5502F108041C5D012505EB4105054E7A
:104E100006EBC51502EBC006AC55541CE2B2082ADD
:104E2000E8DB70BD3403002070B513460446C51797
:104E300000EB15752D11A0EB0515E8B20C46CD174A
:104E400001EB9575AD10A1EB8505E9B2002214E0E8
:104E50009C5C0B4E06EB012502EBC006AC5502F143
:104E600010041C5D012505EB4105054E06EBC5153B
:104E700002EBC006AC55541CE2B2102AE8DB70BD50
:104E8000340300202DE9F04389B0074688461446D4
:104E90003E46C14619E001A92046FEF775FA0546CF
:104EA000202D08D101AA49463046FFF7BDFFB01CAE
:104EB000C6B2641C08E0102D06D101AA494630464E
:104EC000FFF784FF701CC6B2641C20780028E2D172
:104ED00009B0BDE8F083000070B504460025002647
:104EE00000224FF480711948FEF748FA00224FF46F
:104EF00080611748FEF742FA2007050C04F0F00025
:104F0000860013480C30006820F4704010490C31C2
:104F1000086008460068284308600E48C06820F40E
:104F200070700C49C8600846C0683043C8600122F0
:104F3000C9140748FEF722FAFDF7ADF800224FF436
:104F400000610348FEF71AFA70BD00000008014036
:104F5000000C01400010014070B5044600250026F9
:104F6000012211021848FEF709FA00224FF480616D
:104F70001648FEF703FA2007050C04F0F00086003F
:104F800012480C30006820F4704010490C31086061
:104F900008460068284308600D48C06820F4707017
:104FA0000B49C8600846C0683043C8600122C91474
:104FB0000648FEF7E3F9FDF76EF800224FF40061B2
:104FC0000248FEF7DBF970BD00080140000C01400B
:104FD00000100140F0B51446142390FBF3F503FBD9
:104FE0001503D8B20B46CD1701EB5575ED10A1EBAB
:104FF000C505E9B20023104D05EBC11500EB4006D5
:10500000042707EB4606AB55002211E0A4F120036C
:1050100003EB8303094D2B449D5C074B03EBC11647
:1050200000EB400302EB43035B1DF554531CDAB263
:10503000052AEBDBF0BD0000340300207B000108F3
:10504000F0B505460F4614462E4607E0227839464D
:105050003046FFF7BFFF701CC6B2641C20780028E2
:10506000F4D1F0BD08B50720ADF8000003208DF89D
:10507000020010208DF8030069463B48FEF76FF8E8
:10508000012202213848FEF779F9642007F076FA08
:10509000002202213448FEF771F9142007F06EFA5D
:1050A0000E2000F0A3F8012202212F48FEF766F936
:1050B000142007F063FA002202212B48FEF75EF964
:1050C000142007F05BFA302000F090F8FC2000F08C
:1050D0008DF8012202212448FEF750F9142007F030
:1050E0004DFA002202212048FEF748F9112000F075
:1050F0007DF8772000F07AF8142007F03FFA0122BB
:1051000002211948FEF73AF9142007F037FA002275
:1051100002211548FEF732F9142007F02FFA382043
:1051200000F064F8222000F061F8142007F026FA5D
:10513000012202210C48FEF721F9142007F01EFA83
:10514000002202210848FEF719F9142007F016FA88
:105150000D2000F04BF8142007F010FA0122022174
:105160000148FEF70BF908BD000801400548817AA7
:1051700019B10521044A116002E00121024A1160BF
:1051800070470000609000202403002010B500222A
:1051900002210948FEF7F2F80A2007F0EFF90E2085
:1051A00000F024F80A2007F0E9F901220221024860
:1051B000FEF7E4F810BD00000008014010B5002221
:1051C00002210948FEF7DAF80A2007F0D7F90D2086
:1051D00000F00CF80A2007F0D1F901220221024860
:1051E000FEF7CCF810BD00000008014070B5054680
:1051F00000242AE0012211461548FEF7BFF80120DD
:10520000A04000EA05067EB1012204211048FEF705
:10521000B5F8002201210E48FEF7B0F80122114630
:105220000B48FEF7ABF80EE0002204210848FEF719
:10523000A5F8002201210648FEF7A0F80122114638
:105240000348FEF79BF8601CC4B2082CD2DB70BD8B
:105250000008014070B50546012011490870002280
:1052600002211048FEF78AF8142007F087F9002081
:10527000FFF7BCFF002404E0285DFFF7B7FF601CC8
:10528000C4B2052CF8DB142007F078F901220221C2
:105290000448FEF773F800200149087070BD000053
:1052A0006E00002000080140014611B1012904D11F
:1052B00001E0002070470020FCE70120FAE72DE91B
:1052C000F05F064614461D46DDE90A894FF4007278
:1052D0004FF0000320462946FAF7C2FF1FFA80FA72
:1052E0004FF40072002320462946FAF7B9FF1FFA4F
:1052F00082FB3EB9002743464A4659465046FBF7D3
:10530000E5FA02E00120BDE8F09F00BF0FB10120E7
:10531000F9E70020F7E72DE9F05F064614461D4641
:10532000DDE90A894FF400724FF000032046294658
:10533000FAF796FF1FFA80FA4FF400720023204616
:105340002946FAF78DFF1FFA82FB3EB90027434634
:105350004A4659465046FBF70DFB02E00120BDE8E6
:10536000F09F00BF0FB10120F9E70020F7E7000030
:1053700070B50546002414480068007800F07F00EE
:10538000212810D1FE2D0ED10F480068408850B959
:105390000D480068808830B90B480068C088012833
:1053A00001D10A4C01E0022070BD0CB90220FBE7DC
:1053B000054800688461002103480068418200209C
:1053C000A0470020F0E7000044010020713B0008E6
:1053D00010B504460249204605F0AEFE10BD00009F
:1053E000F402002010B504460249204605F0A4FE50
:1053F00010BD0000EC02002070B5054606480068AC
:10540000C478052C01DD002070BD044800EBC40108
:10541000284605F091FEF7E744010020FC02002039
:105420000246002901DD02207047002A01DD02202A
:10543000FAE70020F8E7000010B5044611480068BC
:10544000007800F07F0021281AD1FF2C18D10D48D8
:1054500000684088A0B90B480068808880B9094876
:105460000068C08860B90120FCF792FB0220FCF7BD
:1054700079FB05480549086000200549087010BD02
:105480000220FCE744010020555342437C90002059
:105490002402002010B50020314988723148C079BB
:1054A000314909684872002005F0B0FB4FF40071E3
:1054B000002005F07BFC2021002005F05BFC18217A
:1054C000002005F0CFFB294890F82C10002005F0B3
:1054D000DBFB5821002005F02FFC0020FCF76EFBC1
:1054E000002005F013FC0021012005F05FFC98214D
:1054F000012005F021FC2021012005F03BFC0021CA
:10550000012005F0E7FB0021022005F04FFCD82127
:10551000022005F0A7FB154890F82C10022005F09A
:10552000B3FB4FF44051022005F0D4FB00210220D0
:1055300005F020FC0D4890F82C10002005F0A4FB8D
:10554000002005F0E3FB002005F068FB012008497E
:10555000086008480849086000200849087010BD24
:1055600060900020CA020108440100209802002037
:1055700024030020555342437C9000202402002045
:105580007047704710B5FEF713FC00200549096805
:10559000887203F0EDFA06F09FFC002002490860D3
:1055A00010BD000044010020240300202DE9F04F2D
:1055B000E5B0002018908346002501200D901422AC
:1055C000EFA108A8FBF732F81C22F2A101A8FBF713
:1055D0002DF8002211464FF4164006F0A1F9FFF70E
:1055E000C1FAF3A200210846FFF74CFC0122F5A105
:1055F000F848006807F0F8FE20B3F7A20321002066
:10560000FFF740FCFFF724FB00BF4FF48061F74831
:10561000FDF776FE28B10121F448FDF771FE002860
:10562000F3D100BF4FF48061F048FDF769FE002818
:10563000F8D00121ED48FDF763FE0028F2D065B0F7
:10564000BDE8F08FEA4B06225CA9E248006807F04B
:105650007BFFFCF7C3FA30B95CA8FEF709FF0746E9
:105660004FF0010B00E00227F6E30D9885425FD072
:10567000BBF1000F39D005EB4510811DD5480068FE
:1056800007F00CFADA4B21225CA9D248006807F037
:105690005BFF002406E05CA9A01D085C0EA908556C
:1056A000601CC4B2102CF6DB00208DF848000EAA56
:1056B0000121FFF7E7FB002D0CDD05F16402CDA110
:1056C000D148FAF745FE05F16402D0A113A8FAF714
:1056D0003FFE21E02A46C7A1CB48FAF739FE2A4609
:1056E000CAA113A8FAF734FE16E0002D0ADDCCA2F9
:1056F00001210020FFF7C6FB6B22BEA1C248FAF7CA
:1057000027FE09E0CBA201210020FFF7BBFB00220E
:10571000B8A1BD48FAF71CFEBB4A02210020FFF7E2
:10572000B1FBC9A203210020FFF7ACFBFFF790FA01
:105730000D954FF48061AD48FDF7E2FD002872D170
:1057400000BF4FF48061A948FDF7DAFD0028F8D0CA
:10575000BDA203210020FFF795FBFFF779FABBF10B
:10576000000F0FD019A913A802F016FC8046B8F15B
:10577000000F22D1B9A203210020FFF783FB0120F3
:105780001890EBE3002D0CDD4FF00708002405E036
:1057900001A8005D19A90855601CC4B21C2CF7DBD8
:1057A0000BE04FF00508002405E008A8005D19A9EA
:1057B0000855601CC4B2142CF7DBADA203210020F5
:1057C000FFF760FBFFF744FA01208DF86401062023
:1057D0008DF8650160208DF8660103208DF8670162
:1057E00000208DF8680101208DF86901A6208DF850
:1057F0006A010A208DF86B01002417E00020A149FE
:105800000880052006F088FE082159A806F030F926
:105810001E21082006F010F930B9082159A803F01C
:105820002BFB08B904E0F3E3601CC4B20A2CE5DBEF
:1058300000BF0A2C07D194A203210020FFF722FB0E
:105840000120189027E2022006F08CFE93A203218B
:105850000120FFF717FBFFF7FBF901208DF864012A
:1058600006208DF8650141208DF8660101208DF834
:10587000670105208DF8680196208DF869014F2099
:105880008DF86A0108208DF86B0100241EE00020CD
:105890007C490880052006F03FFE082159A806F043
:1058A000E7F81E21082006F0C7F868B908217C48EF
:1058B000FBF7E2FF40B97A480079882804D178489C
:1058C0004079882800D103E0601CC4B2032CDEDBE1
:1058D00000BF032C07D173A203210020FFF7D2FAE7
:1058E00001201890AEE76DA203210220FFF7CAFA4B
:1058F000FFF7AEF901208DF8640103208DF86501F2
:1059000031208DF8660100208DF867018DF868015F
:1059100001208DF869018A208DF86A01F6208DF842
:105920006B0100241DE0002056490880052006F088
:10593000F3FD082159A806F09BF81E21082006F067
:105940007BF860B908215648FBF796FF38B95448F0
:10595000807820B95248C078022800D103E0601C4A
:10596000C4B2032CDFDB00BF032C07D152A20321FA
:105970000020FFF787FA0120189063E7A6E00000F7
:10598000FA040064D5070000D5080000D50900001E
:10599000D50A0000F80E0001FA040064D5004EEAB2
:1059A000D5070200D50805F0D509006BD50A00011E
:1059B0002020D6F7B0E5D0ADD2E9B8C4D6C62020B5
:1059C00000000000303A2F636F6E6669672E6D6EBF
:1059D0006B0000002C010020C5E4D6C3CEC4BCFE81
:1059E000B4F2BFAACAA7B0DC00000000001001405A
:1059F00030010020D0ADD2E9C2EBA3BA2530336428
:105A0000202020202000000034070020303A2F4DB5
:105A10004354435F4D43422F253033642E6D740051
:105A2000B5DBB0C2284449414F2920202020202046
:105A300000000000B1EAD7BCD0ADD2E92020202080
:105A400020202020000000002020202020202020D6
:105A5000202020202020202000000000B6C1C8A166
:105A6000B8C4D6C6CEC4BCFECAA7B0DC00000000D5
:105A70002A2020202020202020202020202020201C
:105A80000000000086000020BBD6B8B4B2CECAFD2C
:105A9000C9E8D6C3CAA7B0DC000000002A00000095
:105AA00054070020CAE4C8EBD0A3D1E9C2EBCAA7CF
:105AB000B0DC202000000000B6C1C8A1D0A3D1E90D
:105AC000C2EBCAA7B0DC202000000000FE4890F81E
:105AD00005904FF6FF7000EA0929FB480079484419
